{
  "contractName": "CandidateList",
  "abi": [
    {
      "constant": true,
      "inputs": [],
      "name": "owner",
      "outputs": [
        {
          "name": "",
          "type": "address"
        }
      ],
      "payable": false,
      "stateMutability": "view",
      "type": "function"
    },
    {
      "constant": false,
      "inputs": [
        {
          "name": "newOwner",
          "type": "address"
        }
      ],
      "name": "transferOwnership",
      "outputs": [],
      "payable": false,
      "stateMutability": "nonpayable",
      "type": "function"
    },
    {
      "anonymous": false,
      "inputs": [
        {
          "indexed": true,
          "name": "previousOwner",
          "type": "address"
        },
        {
          "indexed": true,
          "name": "newOwner",
          "type": "address"
        }
      ],
      "name": "OwnershipTransferred",
      "type": "event"
    },
    {
      "constant": false,
      "inputs": [
        {
          "name": "_candidateName",
          "type": "string"
        },
        {
          "name": "_commitment",
          "type": "string"
        }
      ],
      "name": "addCandidate",
      "outputs": [
        {
          "name": "success",
          "type": "bool"
        }
      ],
      "payable": false,
      "stateMutability": "nonpayable",
      "type": "function"
    },
    {
      "constant": false,
      "inputs": [
        {
          "name": "_candidateIndex",
          "type": "uint256"
        }
      ],
      "name": "removeCandidate",
      "outputs": [
        {
          "name": "success",
          "type": "bool"
        }
      ],
      "payable": false,
      "stateMutability": "nonpayable",
      "type": "function"
    },
    {
      "constant": true,
      "inputs": [
        {
          "name": "_candidateIndex",
          "type": "uint256"
        }
      ],
      "name": "getCandidate",
      "outputs": [
        {
          "name": "",
          "type": "string"
        },
        {
          "name": "",
          "type": "string"
        }
      ],
      "payable": false,
      "stateMutability": "view",
      "type": "function"
    },
    {
      "constant": true,
      "inputs": [],
      "name": "getCandidateLength",
      "outputs": [
        {
          "name": "",
          "type": "uint256"
        }
      ],
      "payable": false,
      "stateMutability": "view",
      "type": "function"
    }
  ],
  "bytecode": "0x608060405260008054600160a060020a033316600160a060020a03199091161790556108d3806100306000396000f3006080604052600436106100775763ffffffff7c010000000000000000000000000000000000000000000000000000000060003504166309e9d7e2811461007c57806326541b56146100a857806335b8e8201461013f5780638da5cb5b14610235578063f2fde38b14610273578063f7522a83146102a3575b600080fd5b34801561008857600080fd5b506100946004356102ca565b604080519115158252519081900360200190f35b3480156100b457600080fd5b506040805160206004803580820135601f810184900484028501840190955284845261009494369492936024939284019190819084018382808284375050604080516020601f89358b018035918201839004830284018301909452808352979a9998810197919650918201945092508291508401838280828437509497506103cd9650505050505050565b34801561014b57600080fd5b5061015760043561047d565b604051808060200180602001838103835285818151815260200191508051906020019080838360005b83811015610198578181015183820152602001610180565b50505050905090810190601f1680156101c55780820380516001836020036101000a031916815260200191505b50838103825284518152845160209182019186019080838360005b838110156101f85781810151838201526020016101e0565b50505050905090810190601f1680156102255780820380516001836020036101000a031916815260200191505b5094505050505060405180910390f35b34801561024157600080fd5b5061024a610602565b6040805173ffffffffffffffffffffffffffffffffffffffff9092168252519081900360200190f35b34801561027f57600080fd5b506102a173ffffffffffffffffffffffffffffffffffffffff6004351661061e565b005b3480156102af57600080fd5b506102b86106ea565b60408051918252519081900360200190f35b6000805481903373ffffffffffffffffffffffffffffffffffffffff9081169116146102f557600080fd5b82600011158015610307575060015483105b156103c75750815b600154600019018110156103ae576001805482820190811061032d57fe5b906000526020600020906002020160018281548110151561034a57fe5b60009182526020909120825460029283029091019161037b91839185916000196101006001831615020116046106f1565b50600182018160010190805460018160011615610100020316600290046103a39291906106f1565b50505060010161030f565b60018054906103c1906000198301610776565b50600191505b50919050565b600080543373ffffffffffffffffffffffffffffffffffffffff9081169116146103f657600080fd5b604080518082019091528381526020808201849052600180548082018083556000929092528351805192949360029092027fb10e2d527612073b26eecdfd717e6a320cf44b4afac2b0732d9fcbe2b7fa0cf6019261045792849201906107a7565b50602082810151805161047092600185019201906107a7565b5060019695505050505050565b6001546060908190831061049057600080fd5b600180548490811061049e57fe5b90600052602060002090600202016000016001848154811015156104be57fe5b9060005260206000209060020201600101818054600181600116156101000203166002900480601f0160208091040260200160405190810160405280929190818152602001828054600181600116156101000203166002900480156105645780601f1061053957610100808354040283529160200191610564565b820191906000526020600020905b81548152906001019060200180831161054757829003601f168201915b5050845460408051602060026001851615610100026000190190941693909304601f8101849004840282018401909252818152959750869450925084019050828280156105f25780601f106105c7576101008083540402835291602001916105f2565b820191906000526020600020905b8154815290600101906020018083116105d557829003601f168201915b5050505050905091509150915091565b60005473ffffffffffffffffffffffffffffffffffffffff1681565b6000543373ffffffffffffffffffffffffffffffffffffffff90811691161461064657600080fd5b73ffffffffffffffffffffffffffffffffffffffff8116151561066857600080fd5b6000805460405173ffffffffffffffffffffffffffffffffffffffff808516939216917f8be0079c531659141344cd1fd0a4f28419497f9722a3daafe3b4186f6b6457e091a36000805473ffffffffffffffffffffffffffffffffffffffff191673ffffffffffffffffffffffffffffffffffffffff92909216919091179055565b6001545b90565b828054600181600116156101000203166002900490600052602060002090601f016020900481019282601f1061072a5780548555610766565b8280016001018555821561076657600052602060002091601f016020900482015b8281111561076657825482559160010191906001019061074b565b50610772929150610815565b5090565b8154818355818111156107a2576002028160020283600052602060002091820191016107a2919061082f565b505050565b828054600181600116156101000203166002900490600052602060002090601f016020900481019282601f106107e857805160ff1916838001178555610766565b82800160010185558215610766579182015b828111156107665782518255916020019190600101906107fa565b6106ee91905b80821115610772576000815560010161081b565b6106ee91905b808211156107725760006108498282610860565b610857600183016000610860565b50600201610835565b50805460018160011615610100020316600290046000825580601f1061088657506108a4565b601f0160209004906000526020600020908101906108a49190610815565b505600a165627a7a7230582080c7bf0042a70123942b17a7d59ad6569562daa46a57bde577f8b2b7e6326ee10029",
  "source": "pragma solidity ^0.4.21;\r\n\r\nimport \"openzeppelin-solidity/contracts/ownership/Ownable.sol\";\r\n\r\n/**\r\n * @title 후보리스트\r\n */\r\ncontract CandidateList is Ownable {\r\n\r\n    struct Candidate {\r\n        string name;\r\n        string commitment;\r\n    }\r\n    Candidate[] internal candidates;\r\n\r\n    /**\r\n     * @dev 후보자리스트에 후보자를 추가하는 메소드\r\n     * @param _candidateName 후보자의 이름\r\n     * @param _commitment 후보자의 공약\r\n     * @return success 성공하면 true, 실패하면 false\r\n     */\r\n    function addCandidate(string _candidateName, string _commitment) public onlyOwner returns (bool success){\r\n        candidates.push(Candidate(_candidateName, _commitment));\r\n        success = true;\r\n    }\r\n\r\n    /**\r\n     * @dev 후보자리스트에서 후보자를 제거하는 메소드\r\n     * @param _candidateIndex 후보자의 인덱스\r\n     * @return success 성공하면 true, 실패하면 false\r\n     */\r\n    function removeCandidate(uint _candidateIndex) public onlyOwner returns (bool success){\r\n        if (0 <= _candidateIndex && _candidateIndex < candidates.length) {\r\n\r\n            for (uint i = _candidateIndex; i<candidates.length-1; i++){\r\n                candidates[i] = candidates[i+1];\r\n            }\r\n            candidates.length--;\r\n\r\n            success = true;\r\n        }\r\n    }\r\n\r\n    /**\r\n     * @dev 후보자를 얻는 메소드\r\n     * @param _candidateIndex 후보자 인덱스\r\n     * @return 후보자의 이름, 득표 수를 반환\r\n     */\r\n    function getCandidate(uint _candidateIndex) external view returns (\r\n        string,\r\n        string\r\n    ) {\r\n        require(_candidateIndex < candidates.length);\r\n\r\n        return (\r\n            candidates[_candidateIndex].name,\r\n            candidates[_candidateIndex].commitment\r\n        );\r\n    }\r\n\r\n    /**\r\n     * @dev 후보자 길이를 얻는 메소드\r\n     * @return 후보자 리스트의 길이를 반환\r\n     */\r\n    function getCandidateLength() external view returns(uint) {\r\n        return candidates.length;\r\n    }\r\n}\r\n",
  "sourcePath": "C:\\Users\\tkddn\\Projects\\Capstone\\prototype\\contracts\\Candidatelist.sol",
  "compiler": {
    "name": "solc",
    "version": "0.4.23+commit.124ca40d.Emscripten.clang"
  },
  "schemaVersion": "2.0.0",
  "updatedAt": "2018-09-07T07:18:23.250Z"
}