{
  "contractName": "Candidatelist",
  "abi": [
    {
      "constant": true,
      "inputs": [],
      "name": "owner",
      "outputs": [
        {
          "name": "",
          "type": "address"
        }
      ],
      "payable": false,
      "stateMutability": "view",
      "type": "function"
    },
    {
      "constant": false,
      "inputs": [
        {
          "name": "newOwner",
          "type": "address"
        }
      ],
      "name": "transferOwnership",
      "outputs": [],
      "payable": false,
      "stateMutability": "nonpayable",
      "type": "function"
    },
    {
      "anonymous": false,
      "inputs": [
        {
          "indexed": true,
          "name": "previousOwner",
          "type": "address"
        },
        {
          "indexed": true,
          "name": "newOwner",
          "type": "address"
        }
      ],
      "name": "OwnershipTransferred",
      "type": "event"
    },
    {
      "constant": false,
      "inputs": [
        {
          "name": "_candidateName",
          "type": "string"
        },
        {
          "name": "_commitment",
          "type": "string"
        }
      ],
      "name": "addCandidate",
      "outputs": [
        {
          "name": "success",
          "type": "bool"
        }
      ],
      "payable": false,
      "stateMutability": "nonpayable",
      "type": "function"
    },
    {
      "constant": false,
      "inputs": [
        {
          "name": "_candidateName",
          "type": "string"
        }
      ],
      "name": "addCandidate",
      "outputs": [
        {
          "name": "success",
          "type": "bool"
        }
      ],
      "payable": false,
      "stateMutability": "nonpayable",
      "type": "function"
    },
    {
      "constant": false,
      "inputs": [
        {
          "name": "_candidateIndex",
          "type": "uint256"
        }
      ],
      "name": "removeCandidate",
      "outputs": [
        {
          "name": "success",
          "type": "bool"
        }
      ],
      "payable": false,
      "stateMutability": "nonpayable",
      "type": "function"
    },
    {
      "constant": true,
      "inputs": [
        {
          "name": "_candidateIndex",
          "type": "uint256"
        }
      ],
      "name": "getCandidate",
      "outputs": [
        {
          "name": "",
          "type": "string"
        },
        {
          "name": "",
          "type": "string"
        },
        {
          "name": "",
          "type": "uint256"
        }
      ],
      "payable": false,
      "stateMutability": "view",
      "type": "function"
    },
    {
      "constant": true,
      "inputs": [],
      "name": "getCandidateLength",
      "outputs": [
        {
          "name": "",
          "type": "uint256"
        }
      ],
      "payable": false,
      "stateMutability": "view",
      "type": "function"
    }
  ],
  "bytecode": "0x608060405260008054600160a060020a033316600160a060020a0319909116179055610a39806100306000396000f3006080604052600436106100825763ffffffff7c010000000000000000000000000000000000000000000000000000000060003504166309e9d7e2811461008757806326541b56146100b357806335b8e8201461014a578063462e91ec146102475780638da5cb5b146102a0578063f2fde38b146102de578063f7522a831461030e575b600080fd5b34801561009357600080fd5b5061009f600435610335565b604080519115158252519081900360200190f35b3480156100bf57600080fd5b506040805160206004803580820135601f810184900484028501840190955284845261009f94369492936024939284019190819084018382808284375050604080516020601f89358b018035918201839004830284018301909452808352979a9998810197919650918201945092508291508401838280828437509497506104369650505050505050565b34801561015657600080fd5b506101626004356104f6565b604051808060200180602001848152602001838103835286818151815260200191508051906020019080838360005b838110156101a9578181015183820152602001610191565b50505050905090810190601f1680156101d65780820380516001836020036101000a031916815260200191505b50838103825285518152855160209182019187019080838360005b838110156102095781810151838201526020016101f1565b50505050905090810190601f1680156102365780820380516001836020036101000a031916815260200191505b509550505050505060405180910390f35b34801561025357600080fd5b506040805160206004803580820135601f810184900484028501840190955284845261009f9436949293602493928401919081908401838280828437509497506106959650505050505050565b3480156102ac57600080fd5b506102b5610761565b6040805173ffffffffffffffffffffffffffffffffffffffff9092168252519081900360200190f35b3480156102ea57600080fd5b5061030c73ffffffffffffffffffffffffffffffffffffffff6004351661077d565b005b34801561031a57600080fd5b50610323610849565b60408051918252519081900360200190f35b6000805481903373ffffffffffffffffffffffffffffffffffffffff90811691161461036057600080fd5b6001548310156104305750815b60015460001901811015610417576001805482820190811061038b57fe5b90600052602060002090600302016001828154811015156103a857fe5b9060005260206000209060030201600082018160000190805460018160011615610100020316600290046103dd929190610850565b5060018201816001019080546001816001161561010002031660029004610405929190610850565b5060029182015491015560010161036d565b600180549061042a9060001983016108d5565b50600191505b50919050565b600080543373ffffffffffffffffffffffffffffffffffffffff90811691161461045f57600080fd5b604080516060810182528481526020808201859052600092820183905260018054808201808355919094528251805191946003027fb10e2d527612073b26eecdfd717e6a320cf44b4afac2b0732d9fcbe2b7fa0cf601926104c592849290910190610906565b5060208281015180516104de9260018501920190610906565b50604082015181600201555050506001905092915050565b6001546060908190600090841061050c57600080fd5b600180548590811061051a57fe5b906000526020600020906003020160000160018581548110151561053a57fe5b906000526020600020906003020160010160018681548110151561055a57fe5b60009182526020918290206002600390920201810154845460408051601f6000196101006001861615020190931694909404918201859004850284018501905280835290928591908301828280156105f35780601f106105c8576101008083540402835291602001916105f3565b820191906000526020600020905b8154815290600101906020018083116105d657829003601f168201915b5050855460408051602060026001851615610100026000190190941693909304601f8101849004840282018401909252818152959850879450925084019050828280156106815780601f1061065657610100808354040283529160200191610681565b820191906000526020600020905b81548152906001019060200180831161066457829003601f168201915b505050505091509250925092509193909250565b600080543373ffffffffffffffffffffffffffffffffffffffff9081169116146106be57600080fd5b60408051606081018252838152815160208181018452600080835281840192909252928201819052600180548082018083559190925282518051919460039093027fb10e2d527612073b26eecdfd717e6a320cf44b4afac2b0732d9fcbe2b7fa0cf6019261073192849290910190610906565b50602082810151805161074a9260018501920190610906565b506040820151816002015550505060019050919050565b60005473ffffffffffffffffffffffffffffffffffffffff1681565b6000543373ffffffffffffffffffffffffffffffffffffffff9081169116146107a557600080fd5b73ffffffffffffffffffffffffffffffffffffffff811615156107c757600080fd5b6000805460405173ffffffffffffffffffffffffffffffffffffffff808516939216917f8be0079c531659141344cd1fd0a4f28419497f9722a3daafe3b4186f6b6457e091a36000805473ffffffffffffffffffffffffffffffffffffffff191673ffffffffffffffffffffffffffffffffffffffff92909216919091179055565b6001545b90565b828054600181600116156101000203166002900490600052602060002090601f016020900481019282601f1061088957805485556108c5565b828001600101855582156108c557600052602060002091601f016020900482015b828111156108c55782548255916001019190600101906108aa565b506108d1929150610974565b5090565b81548183558181111561090157600302816003028360005260206000209182019101610901919061098e565b505050565b828054600181600116156101000203166002900490600052602060002090601f016020900481019282601f1061094757805160ff19168380011785556108c5565b828001600101855582156108c5579182015b828111156108c5578251825591602001919060010190610959565b61084d91905b808211156108d1576000815560010161097a565b61084d91905b808211156108d15760006109a882826109c6565b6109b66001830160006109c6565b5060006002820155600301610994565b50805460018160011615610100020316600290046000825580601f106109ec5750610a0a565b601f016020900490600052602060002090810190610a0a9190610974565b505600a165627a7a723058203960cbd095728aa8bc7b4ea7acbd2adbc90e229429fd51d4dcde0e492e3474d00029",
  "source": "pragma solidity ^0.4.21;\r\n\r\nimport \"openzeppelin-solidity/contracts/ownership/Ownable.sol\";\r\n\r\n/**\r\n * @title 후보리스트\r\n */\r\ncontract Candidatelist is Ownable {\r\n\r\n    struct Candidate {\r\n        string name;\r\n        string commitment;\r\n        uint numVote;\r\n    }\r\n    Candidate[] internal candidates;\r\n\r\n    /**\r\n     * @dev 후보리스트에 후보를 추가하는 메소드\r\n     * @param _candidateName 후보의 이름\r\n     * @return success 성공하면 true, 실패하면 false\r\n     */\r\n    function addCandidate(string _candidateName) public onlyOwner returns (bool success){\r\n        candidates.push(Candidate(_candidateName, '', 0));\r\n        success = true;\r\n    }\r\n\r\n    /**\r\n     * @dev 후보리스트에 후보를 추가하는 메소드\r\n     * @param _candidateName 후보의 이름\r\n     * @param _commitment 후보의 공약\r\n     * @return success 성공하면 true, 실패하면 false\r\n     */\r\n    function addCandidate(string _candidateName, string _commitment) public onlyOwner returns (bool success){\r\n        candidates.push(Candidate(_candidateName, _commitment, 0));\r\n        success = true;\r\n    }\r\n\r\n    /**\r\n     * @dev 후보리스트에서 후보자를 제거하는 메소드\r\n     * @param _candidateIndex 후보자의 인덱스\r\n     * @return success 성공하면 true, 실패하면 false\r\n     */\r\n    function removeCandidate(uint _candidateIndex) public onlyOwner returns (bool success){\r\n        if (_candidateIndex < candidates.length) {\r\n\r\n            for (uint i = _candidateIndex; i<candidates.length-1; i++){\r\n                candidates[i] = candidates[i+1];\r\n            }\r\n            candidates.length--;\r\n\r\n            success = true;\r\n        }\r\n    }\r\n\r\n    /**\r\n     * @dev 후보자를 얻는 메소드\r\n     * @param _candidateIndex 후보자 인덱스\r\n     * @return 후보자의 이름, 득표 수를 반환\r\n     */\r\n    function getCandidate(uint _candidateIndex) external view returns (\r\n        string,\r\n        string,\r\n        uint\r\n    ) {\r\n        require(_candidateIndex < candidates.length);\r\n\r\n        return (\r\n            candidates[_candidateIndex].name,\r\n            candidates[_candidateIndex].commitment,\r\n            candidates[_candidateIndex].numVote\r\n        );\r\n    }\r\n\r\n    /**\r\n     * @dev 후보자 길이를 얻는 메소드\r\n     * @return 후보자 리스트의 길이를 반환\r\n     */\r\n    function getCandidateLength() external view returns(uint) {\r\n        return candidates.length;\r\n    }\r\n\r\n    /**\r\n     * @dev 후보자에게 투표를 하는 내부 메소드\r\n     * @param _candidateIndex 후보자 리스트의 인덱스\r\n     * @return 성공하면 true\r\n     */\r\n    function voteCandidate(uint _candidateIndex) internal returns(bool success) {\r\n        require(_candidateIndex < candidates.length);\r\n\r\n        candidates[_candidateIndex].numVote++;\r\n        success = true;\r\n    }\r\n\r\n    //    /**\r\n//     * @dev 후보리스트를 시작 인덱스부터 끝 인덱스까지 얻는 메소드\r\n//     * @param _startIndex 시작 인덱스\r\n//     * @param _endIndex 끝 인덱스\r\n//     * @return 후보의 이름 리스트, 후보의 득표 리스트를 반환\r\n//     */\r\n//    function getCandidates(uint _startIndex, uint _endIndex) onlyOwner public returns (string[], uint[]) {\r\n//        require(_startIndex < candidates.length && _endIndex < candidates.length);\r\n//        require(_endIndex >= _startIndex);\r\n//\r\n//        if (_startIndex == _endIndex) {\r\n//            return (candidates[_startIndex].name, candidates[_startIndex].num);\r\n//        } else if (_startIndex <= 0 && _endIndex <= 0) {\r\n//            _startIndex = 0;\r\n//            _endIndex = candidates.length;\r\n//        }\r\n//\r\n//        string[] memory names = new string[](_endIndex - _startIndex);\r\n//        uint[] memory numVotes = new uint[](_endIndex - _startIndex);\r\n//\r\n//        for (uint i = _startIndex; i <= _endIndex; i++) {\r\n//            Candidate storage candidate = candidates[i];\r\n//            names[i] = candidate.name;\r\n//            numVotes[i] = candidate.numVote;\r\n//        }\r\n//        return (names, numVotes);\r\n//    }\r\n}\r\n",
  "sourcePath": "C:\\Users\\tkddn\\Projects\\Capstone\\prototype\\contracts\\Candidatelist.sol",
  "compiler": {
    "name": "solc",
    "version": "0.4.23+commit.124ca40d.Emscripten.clang"
  },
  "schemaVersion": "2.0.0",
  "updatedAt": "2018-05-27T09:44:40.301Z"
}