{
  "contractName": "Candidatelist",
  "abi": [
    {
      "constant": true,
      "inputs": [],
      "name": "owner",
      "outputs": [
        {
          "name": "",
          "type": "address"
        }
      ],
      "payable": false,
      "stateMutability": "view",
      "type": "function"
    },
    {
      "constant": false,
      "inputs": [
        {
          "name": "newOwner",
          "type": "address"
        }
      ],
      "name": "transferOwnership",
      "outputs": [],
      "payable": false,
      "stateMutability": "nonpayable",
      "type": "function"
    },
    {
      "anonymous": false,
      "inputs": [
        {
          "indexed": true,
          "name": "previousOwner",
          "type": "address"
        },
        {
          "indexed": true,
          "name": "newOwner",
          "type": "address"
        }
      ],
      "name": "OwnershipTransferred",
      "type": "event"
    },
    {
      "constant": false,
      "inputs": [
        {
          "name": "_candidateName",
          "type": "string"
        },
        {
          "name": "_commitment",
          "type": "string"
        }
      ],
      "name": "addCandidate",
      "outputs": [
        {
          "name": "success",
          "type": "bool"
        }
      ],
      "payable": false,
      "stateMutability": "nonpayable",
      "type": "function"
    },
    {
      "constant": false,
      "inputs": [
        {
          "name": "_candidateName",
          "type": "string"
        }
      ],
      "name": "addCandidate",
      "outputs": [
        {
          "name": "success",
          "type": "bool"
        }
      ],
      "payable": false,
      "stateMutability": "nonpayable",
      "type": "function"
    },
    {
      "constant": false,
      "inputs": [
        {
          "name": "_candidateIndex",
          "type": "uint256"
        }
      ],
      "name": "removeCandidate",
      "outputs": [
        {
          "name": "success",
          "type": "bool"
        }
      ],
      "payable": false,
      "stateMutability": "nonpayable",
      "type": "function"
    },
    {
      "constant": true,
      "inputs": [
        {
          "name": "_candidateIndex",
          "type": "uint256"
        }
      ],
      "name": "getCandidate",
      "outputs": [
        {
          "name": "",
          "type": "string"
        },
        {
          "name": "",
          "type": "string"
        },
        {
          "name": "",
          "type": "uint256"
        }
      ],
      "payable": false,
      "stateMutability": "view",
      "type": "function"
    },
    {
      "constant": true,
      "inputs": [],
      "name": "getCandidateLength",
      "outputs": [
        {
          "name": "",
          "type": "uint256"
        }
      ],
      "payable": false,
      "stateMutability": "view",
      "type": "function"
    }
  ],
  "bytecode": "0x608060405260008054600160a060020a03191633179055610a29806100256000396000f3006080604052600436106100825763ffffffff7c010000000000000000000000000000000000000000000000000000000060003504166309e9d7e2811461008757806326541b56146100b357806335b8e8201461014a578063462e91ec146102475780638da5cb5b146102a0578063f2fde38b146102de578063f7522a831461030e575b600080fd5b34801561009357600080fd5b5061009f600435610335565b604080519115158252519081900360200190f35b3480156100bf57600080fd5b506040805160206004803580820135601f810184900484028501840190955284845261009f94369492936024939284019190819084018382808284375050604080516020601f89358b018035918201839004830284018301909452808352979a9998810197919650918201945092508291508401838280828437509497506104329650505050505050565b34801561015657600080fd5b506101626004356104ee565b604051808060200180602001848152602001838103835286818151815260200191508051906020019080838360005b838110156101a9578181015183820152602001610191565b50505050905090810190601f1680156101d65780820380516001836020036101000a031916815260200191505b50838103825285518152855160209182019187019080838360005b838110156102095781810151838201526020016101f1565b50505050905090810190601f1680156102365780820380516001836020036101000a031916815260200191505b509550505050505060405180910390f35b34801561025357600080fd5b506040805160206004803580820135601f810184900484028501840190955284845261009f94369492936024939284019190819084018382808284375094975061068d9650505050505050565b3480156102ac57600080fd5b506102b5610755565b6040805173ffffffffffffffffffffffffffffffffffffffff9092168252519081900360200190f35b3480156102ea57600080fd5b5061030c73ffffffffffffffffffffffffffffffffffffffff60043516610771565b005b34801561031a57600080fd5b50610323610839565b60408051918252519081900360200190f35b60008054819073ffffffffffffffffffffffffffffffffffffffff16331461035c57600080fd5b60015483101561042c5750815b60015460001901811015610413576001805482820190811061038757fe5b90600052602060002090600302016001828154811015156103a457fe5b9060005260206000209060030201600082018160000190805460018160011615610100020316600290046103d9929190610840565b5060018201816001019080546001816001161561010002031660029004610401929190610840565b50600291820154910155600101610369565b60018054906104269060001983016108c5565b50600191505b50919050565b6000805473ffffffffffffffffffffffffffffffffffffffff16331461045757600080fd5b604080516060810182528481526020808201859052600092820183905260018054808201808355919094528251805191946003027fb10e2d527612073b26eecdfd717e6a320cf44b4afac2b0732d9fcbe2b7fa0cf601926104bd928492909101906108f6565b5060208281015180516104d692600185019201906108f6565b50604082015181600201555050506001905092915050565b6001546060908190600090841061050457600080fd5b600180548590811061051257fe5b906000526020600020906003020160000160018581548110151561053257fe5b906000526020600020906003020160010160018681548110151561055257fe5b60009182526020918290206002600390920201810154845460408051601f6000196101006001861615020190931694909404918201859004850284018501905280835290928591908301828280156105eb5780601f106105c0576101008083540402835291602001916105eb565b820191906000526020600020905b8154815290600101906020018083116105ce57829003601f168201915b5050855460408051602060026001851615610100026000190190941693909304601f8101849004840282018401909252818152959850879450925084019050828280156106795780601f1061064e57610100808354040283529160200191610679565b820191906000526020600020905b81548152906001019060200180831161065c57829003601f168201915b505050505091509250925092509193909250565b6000805473ffffffffffffffffffffffffffffffffffffffff1633146106b257600080fd5b60408051606081018252838152815160208181018452600080835281840192909252928201819052600180548082018083559190925282518051919460039093027fb10e2d527612073b26eecdfd717e6a320cf44b4afac2b0732d9fcbe2b7fa0cf60192610725928492909101906108f6565b50602082810151805161073e92600185019201906108f6565b506040820151816002015550505060019050919050565b60005473ffffffffffffffffffffffffffffffffffffffff1681565b60005473ffffffffffffffffffffffffffffffffffffffff16331461079557600080fd5b73ffffffffffffffffffffffffffffffffffffffff811615156107b757600080fd5b6000805460405173ffffffffffffffffffffffffffffffffffffffff808516939216917f8be0079c531659141344cd1fd0a4f28419497f9722a3daafe3b4186f6b6457e091a36000805473ffffffffffffffffffffffffffffffffffffffff191673ffffffffffffffffffffffffffffffffffffffff92909216919091179055565b6001545b90565b828054600181600116156101000203166002900490600052602060002090601f016020900481019282601f1061087957805485556108b5565b828001600101855582156108b557600052602060002091601f016020900482015b828111156108b557825482559160010191906001019061089a565b506108c1929150610964565b5090565b8154818355818111156108f1576003028160030283600052602060002091820191016108f1919061097e565b505050565b828054600181600116156101000203166002900490600052602060002090601f016020900481019282601f1061093757805160ff19168380011785556108b5565b828001600101855582156108b5579182015b828111156108b5578251825591602001919060010190610949565b61083d91905b808211156108c1576000815560010161096a565b61083d91905b808211156108c157600061099882826109b6565b6109a66001830160006109b6565b5060006002820155600301610984565b50805460018160011615610100020316600290046000825580601f106109dc57506109fa565b601f0160209004906000526020600020908101906109fa9190610964565b505600a165627a7a72305820642a5785e7b1a14072b68dd7cd025c4985e17d328ee39e721647104da3c2c83d0029",
  "source": "pragma solidity ^0.4.21;\n\nimport \"openzeppelin-solidity/contracts/ownership/Ownable.sol\";\n\n/**\n * @title 후보리스트\n */\ncontract Candidatelist is Ownable {\n\n    struct Candidate {\n        string name;\n        string commitment;\n        uint numVote;\n    }\n    Candidate[] internal candidates;\n\n    /**\n     * @dev 후보리스트에 후보를 추가하는 메소드\n     * @param _candidateName 후보의 이름\n     * @return success 성공하면 true, 실패하면 false\n     */\n    function addCandidate(string _candidateName) public onlyOwner returns (bool success){\n        candidates.push(Candidate(_candidateName, '', 0));\n        success = true;\n    }\n\n    /**\n     * @dev 후보리스트에 후보를 추가하는 메소드\n     * @param _candidateName 후보의 이름\n     * @param _commitment 후보의 공약\n     * @return success 성공하면 true, 실패하면 false\n     */\n    function addCandidate(string _candidateName, string _commitment) public onlyOwner returns (bool success){\n        candidates.push(Candidate(_candidateName, _commitment, 0));\n        success = true;\n    }\n\n    /**\n     * @dev 후보리스트에서 후보자를 제거하는 메소드\n     * @param _candidateIndex 후보자의 인덱스\n     * @return success 성공하면 true, 실패하면 false\n     */\n    function removeCandidate(uint _candidateIndex) public onlyOwner returns (bool success){\n        if (_candidateIndex < candidates.length) {\n\n            for (uint i = _candidateIndex; i<candidates.length-1; i++){\n                candidates[i] = candidates[i+1];\n            }\n            candidates.length--;\n\n            success = true;\n        }\n    }\n\n    /**\n     * @dev 후보자를 얻는 메소드\n     * @param _candidateIndex 후보자 인덱스\n     * @return 후보자의 이름, 득표 수를 반환\n     */\n    function getCandidate(uint _candidateIndex) external view returns (\n        string,\n        string,\n        uint\n    ) {\n        require(_candidateIndex < candidates.length);\n\n        return (\n            candidates[_candidateIndex].name,\n            candidates[_candidateIndex].commitment,\n            candidates[_candidateIndex].numVote\n        );\n    }\n\n    /**\n     * @dev 후보자 길이를 얻는 메소드\n     * @return 후보자 리스트의 길이를 반환\n     */\n    function getCandidateLength() external view returns(uint) {\n        return candidates.length;\n    }\n\n    /**\n     * @dev 후보자에게 투표를 하는 내부 메소드\n     * @param _candidateIndex 후보자 리스트의 인덱스\n     * @return 성공하면 true\n     */\n    function voteCandidate(uint _candidateIndex) internal returns(bool success) {\n        require(_candidateIndex < candidates.length);\n\n        candidates[_candidateIndex].numVote++;\n        success = true;\n    }\n\n    //    /**\n//     * @dev 후보리스트를 시작 인덱스부터 끝 인덱스까지 얻는 메소드\n//     * @param _startIndex 시작 인덱스\n//     * @param _endIndex 끝 인덱스\n//     * @return 후보의 이름 리스트, 후보의 득표 리스트를 반환\n//     */\n//    function getCandidates(uint _startIndex, uint _endIndex) onlyOwner public returns (string[], uint[]) {\n//        require(_startIndex < candidates.length && _endIndex < candidates.length);\n//        require(_endIndex >= _startIndex);\n//\n//        if (_startIndex == _endIndex) {\n//            return (candidates[_startIndex].name, candidates[_startIndex].num);\n//        } else if (_startIndex <= 0 && _endIndex <= 0) {\n//            _startIndex = 0;\n//            _endIndex = candidates.length;\n//        }\n//\n//        string[] memory names = new string[](_endIndex - _startIndex);\n//        uint[] memory numVotes = new uint[](_endIndex - _startIndex);\n//\n//        for (uint i = _startIndex; i <= _endIndex; i++) {\n//            Candidate storage candidate = candidates[i];\n//            names[i] = candidate.name;\n//            numVotes[i] = candidate.numVote;\n//        }\n//        return (names, numVotes);\n//    }\n}\n",
  "sourcePath": "/home/ubuntu/prototype/contracts/Candidatelist.sol",
  "compiler": {
    "name": "solc",
    "version": "0.4.24+commit.e67f0147.Emscripten.clang"
  },
  "schemaVersion": "2.0.0",
  "updatedAt": "2018-05-27T08:40:47.590Z"
}