{
  "contractName": "Vote",
  "abi": [
    {
      "constant": false,
      "inputs": [
        {
          "name": "_voterAddress",
          "type": "address"
        }
      ],
      "name": "setVoterStateNoneFromVoters",
      "outputs": [
        {
          "name": "success",
          "type": "bool"
        }
      ],
      "payable": false,
      "stateMutability": "nonpayable",
      "type": "function"
    },
    {
      "constant": false,
      "inputs": [
        {
          "name": "_candidateIndex",
          "type": "uint256"
        }
      ],
      "name": "removeCandidate",
      "outputs": [
        {
          "name": "success",
          "type": "bool"
        }
      ],
      "payable": false,
      "stateMutability": "nonpayable",
      "type": "function"
    },
    {
      "constant": false,
      "inputs": [
        {
          "name": "_voterAddress",
          "type": "address"
        }
      ],
      "name": "addVoterToVoterlist",
      "outputs": [
        {
          "name": "success",
          "type": "bool"
        }
      ],
      "payable": false,
      "stateMutability": "nonpayable",
      "type": "function"
    },
    {
      "constant": true,
      "inputs": [],
      "name": "getNumVoters",
      "outputs": [
        {
          "name": "",
          "type": "uint256"
        }
      ],
      "payable": false,
      "stateMutability": "view",
      "type": "function"
    },
    {
      "constant": false,
      "inputs": [
        {
          "name": "_candidateName",
          "type": "string"
        },
        {
          "name": "_commitment",
          "type": "string"
        }
      ],
      "name": "addCandidate",
      "outputs": [
        {
          "name": "success",
          "type": "bool"
        }
      ],
      "payable": false,
      "stateMutability": "nonpayable",
      "type": "function"
    },
    {
      "constant": true,
      "inputs": [
        {
          "name": "_candidateIndex",
          "type": "uint256"
        }
      ],
      "name": "getCandidate",
      "outputs": [
        {
          "name": "",
          "type": "string"
        },
        {
          "name": "",
          "type": "string"
        },
        {
          "name": "",
          "type": "uint256"
        }
      ],
      "payable": false,
      "stateMutability": "view",
      "type": "function"
    },
    {
      "constant": true,
      "inputs": [
        {
          "name": "_voterAddress",
          "type": "address"
        }
      ],
      "name": "getVoterState",
      "outputs": [
        {
          "name": "",
          "type": "uint256"
        }
      ],
      "payable": false,
      "stateMutability": "view",
      "type": "function"
    },
    {
      "constant": false,
      "inputs": [
        {
          "name": "_candidateName",
          "type": "string"
        }
      ],
      "name": "addCandidate",
      "outputs": [
        {
          "name": "success",
          "type": "bool"
        }
      ],
      "payable": false,
      "stateMutability": "nonpayable",
      "type": "function"
    },
    {
      "constant": true,
      "inputs": [],
      "name": "owner",
      "outputs": [
        {
          "name": "",
          "type": "address"
        }
      ],
      "payable": false,
      "stateMutability": "view",
      "type": "function"
    },
    {
      "constant": false,
      "inputs": [
        {
          "name": "newOwner",
          "type": "address"
        }
      ],
      "name": "transferOwnership",
      "outputs": [],
      "payable": false,
      "stateMutability": "nonpayable",
      "type": "function"
    },
    {
      "constant": true,
      "inputs": [],
      "name": "getCandidateLength",
      "outputs": [
        {
          "name": "",
          "type": "uint256"
        }
      ],
      "payable": false,
      "stateMutability": "view",
      "type": "function"
    },
    {
      "inputs": [
        {
          "name": "_voteName",
          "type": "string"
        },
        {
          "name": "_voteDescription",
          "type": "string"
        },
        {
          "name": "_owner",
          "type": "address"
        },
        {
          "name": "_startDate",
          "type": "uint256"
        },
        {
          "name": "_endDate",
          "type": "uint256"
        },
        {
          "name": "_isPrivate",
          "type": "bool"
        }
      ],
      "payable": false,
      "stateMutability": "nonpayable",
      "type": "constructor"
    },
    {
      "anonymous": false,
      "inputs": [
        {
          "indexed": true,
          "name": "previousOwner",
          "type": "address"
        },
        {
          "indexed": true,
          "name": "newOwner",
          "type": "address"
        }
      ],
      "name": "OwnershipTransferred",
      "type": "event"
    },
    {
      "constant": true,
      "inputs": [
        {
          "name": "accountAddress",
          "type": "address"
        }
      ],
      "name": "isOwner",
      "outputs": [
        {
          "name": "",
          "type": "bool"
        }
      ],
      "payable": false,
      "stateMutability": "view",
      "type": "function"
    },
    {
      "constant": true,
      "inputs": [],
      "name": "getOwner",
      "outputs": [
        {
          "name": "",
          "type": "address"
        }
      ],
      "payable": false,
      "stateMutability": "view",
      "type": "function"
    },
    {
      "constant": true,
      "inputs": [],
      "name": "getNumVotedVoters",
      "outputs": [
        {
          "name": "",
          "type": "uint256"
        }
      ],
      "payable": false,
      "stateMutability": "view",
      "type": "function"
    },
    {
      "constant": true,
      "inputs": [],
      "name": "isPrivateVote",
      "outputs": [
        {
          "name": "",
          "type": "bool"
        }
      ],
      "payable": false,
      "stateMutability": "view",
      "type": "function"
    },
    {
      "constant": true,
      "inputs": [],
      "name": "getVoteSummary",
      "outputs": [
        {
          "name": "",
          "type": "string"
        },
        {
          "name": "",
          "type": "string"
        },
        {
          "name": "",
          "type": "uint256"
        },
        {
          "name": "",
          "type": "uint256"
        },
        {
          "name": "",
          "type": "uint256"
        },
        {
          "name": "",
          "type": "bool"
        }
      ],
      "payable": false,
      "stateMutability": "view",
      "type": "function"
    },
    {
      "constant": false,
      "inputs": [
        {
          "name": "_description",
          "type": "string"
        }
      ],
      "name": "setVoteDescription",
      "outputs": [
        {
          "name": "success",
          "type": "bool"
        }
      ],
      "payable": false,
      "stateMutability": "nonpayable",
      "type": "function"
    },
    {
      "constant": false,
      "inputs": [
        {
          "name": "_voteState",
          "type": "uint256"
        }
      ],
      "name": "setVoteState",
      "outputs": [
        {
          "name": "success",
          "type": "bool"
        }
      ],
      "payable": false,
      "stateMutability": "nonpayable",
      "type": "function"
    },
    {
      "constant": false,
      "inputs": [
        {
          "name": "_startDate",
          "type": "uint256"
        },
        {
          "name": "_endDate",
          "type": "uint256"
        }
      ],
      "name": "setDate",
      "outputs": [
        {
          "name": "success",
          "type": "bool"
        }
      ],
      "payable": false,
      "stateMutability": "nonpayable",
      "type": "function"
    },
    {
      "constant": false,
      "inputs": [
        {
          "name": "_candidateIndex",
          "type": "uint256"
        },
        {
          "name": "_voterAddress",
          "type": "address"
        }
      ],
      "name": "voting",
      "outputs": [
        {
          "name": "success",
          "type": "bool"
        }
      ],
      "payable": false,
      "stateMutability": "nonpayable",
      "type": "function"
    }
  ],
  "bytecode": "0x60806040523480156200001157600080fd5b5060405162001319380380620013198339810160409081528151602080840151928401516060850151608086015160a087015160008054600160a060020a038087163391909116600160a060020a0319928316179091161790559487018051909796909601959294919390926200008f9160059190890190620000d2565b508451620000a5906006906020880190620000d2565b506008929092556009556007805491151560ff199283161790556004805490911690555062000177915050565b828054600181600116156101000203166002900490600052602060002090601f016020900481019282601f106200011557805160ff191683800117855562000145565b8280016001018555821562000145579182015b828111156200014557825182559160200191906001019062000128565b506200015392915062000157565b5090565b6200017491905b808211156200015357600081556001016200015e565b90565b61119280620001876000396000f3006080604052600436106101115763ffffffff7c010000000000000000000000000000000000000000000000000000000060003504166303b2bc2e811461011657806309689ab21461013d57806309e9d7e21461017257806321c237b21461018a57806325bd79eb146101ab57806326541b56146101c05780632f54bf6e146102575780633017a1d81461027857806335b8e8201461029c57806345a5c08914610399578063462e91ec146103ba578063616b34ef1461041357806364ad9f8114610428578063893d20e81461053b5780638da5cb5b1461056c578063c3077a2314610581578063d8c053bd14610599578063f2fde38b146105f2578063f3587e4614610615578063f7522a8314610630575b600080fd5b34801561012257600080fd5b5061012b610645565b60408051918252519081900360200190f35b34801561014957600080fd5b5061015e600160a060020a036004351661064c565b604080519115158252519081900360200190f35b34801561017e57600080fd5b5061015e6004356106cc565b34801561019657600080fd5b5061015e600160a060020a03600435166107c0565b3480156101b757600080fd5b5061012b61083b565b3480156101cc57600080fd5b506040805160206004803580820135601f810184900484028501840190955284845261015e94369492936024939284019190819084018382808284375050604080516020601f89358b018035918201839004830284018301909452808352979a9998810197919650918201945092508291508401838280828437509497506108419650505050505050565b34801561026357600080fd5b5061015e600160a060020a03600435166108f4565b34801561028457600080fd5b5061015e600435600160a060020a0360243516610908565b3480156102a857600080fd5b506102b46004356109a9565b604051808060200180602001848152602001838103835286818151815260200191508051906020019080838360005b838110156102fb5781810151838201526020016102e3565b50505050905090810190601f1680156103285780820380516001836020036101000a031916815260200191505b50838103825285518152855160209182019187019080838360005b8381101561035b578181015183820152602001610343565b50505050905090810190601f1680156103885780820380516001836020036101000a031916815260200191505b509550505050505060405180910390f35b3480156103a557600080fd5b5061012b600160a060020a0360043516610b48565b3480156103c657600080fd5b506040805160206004803580820135601f810184900484028501840190955284845261015e943694929360249392840191908190840183828082843750949750610b769650505050505050565b34801561041f57600080fd5b5061015e610c35565b34801561043457600080fd5b5061043d610c3e565b60405180806020018060200187815260200186815260200185815260200184151515158152602001838103835289818151815260200191508051906020019080838360005b8381101561049a578181015183820152602001610482565b50505050905090810190601f1680156104c75780820380516001836020036101000a031916815260200191505b5083810382528851815288516020918201918a019080838360005b838110156104fa5781810151838201526020016104e2565b50505050905090810190601f1680156105275780820380516001836020036101000a031916815260200191505b509850505050505050505060405180910390f35b34801561054757600080fd5b50610550610da4565b60408051600160a060020a039092168252519081900360200190f35b34801561057857600080fd5b50610550610db3565b34801561058d57600080fd5b5061015e600435610dc2565b3480156105a557600080fd5b506040805160206004803580820135601f810184900484028501840190955284845261015e943694929360249392840191908190840183828082843750949750610e1b9650505050505050565b3480156105fe57600080fd5b50610613600160a060020a0360043516610e53565b005b34801561062157600080fd5b5061015e600435602435610eeb565b34801561063c57600080fd5b5061012b610f3d565b600a545b90565b6000805433600160a060020a0390811691161461066857600080fd5b6001600160a060020a03831660009081526002602081905260409091205460ff169081111561069357fe5b14156106c75750600160a060020a0381166000908152600260205260409020805460ff191690556003805460001901905560015b919050565b60008054819033600160a060020a039081169116146106ea57600080fd5b6001548310156107ba5750815b600154600019018110156107a1576001805482820190811061071557fe5b906000526020600020906003020160018281548110151561073257fe5b906000526020600020906003020160008201816000019080546001816001161561010002031660029004610767929190610fa9565b506001820181600101908054600181600116156101000203166002900461078f929190610fa9565b506002918201549101556001016106f7565b60018054906107b490600019830161102e565b50600191505b50919050565b6000805433600160a060020a039081169116146107dc57600080fd5b600160a060020a038216600090815260026020819052604082205460ff169081111561080457fe5b14156106c75750600160a060020a03166000908152600260205260409020805460ff19166001908117909155600380548201905590565b60035490565b6000805433600160a060020a0390811691161461085d57600080fd5b604080516060810182528481526020808201859052600092820183905260018054808201808355919094528251805191946003027fb10e2d527612073b26eecdfd717e6a320cf44b4afac2b0732d9fcbe2b7fa0cf601926108c39284929091019061105f565b5060208281015180516108dc926001850192019061105f565b50604082015181600201555050506001905092915050565b600054600160a060020a0390811691161490565b60075460009060ff16801561094c576001600160a060020a03331660009081526002602081905260409091205460ff169081111561094257fe5b1461094c57600080fd5b60005433600160a060020a0390811691161461096757600080fd5b600261097284610b48565b146109a25761098084610f43565b156109a25761098e83610f81565b156109a257600a8054600190810190915591505b5092915050565b600154606090819060009084106109bf57600080fd5b60018054859081106109cd57fe5b90600052602060002090600302016000016001858154811015156109ed57fe5b9060005260206000209060030201600101600186815481101515610a0d57fe5b60009182526020918290206002600390920201810154845460408051601f600019610100600186161502019093169490940491820185900485028401850190528083529092859190830182828015610aa65780601f10610a7b57610100808354040283529160200191610aa6565b820191906000526020600020905b815481529060010190602001808311610a8957829003601f168201915b5050855460408051602060026001851615610100026000190190941693909304601f810184900484028201840190925281815295985087945092508401905082828015610b345780601f10610b0957610100808354040283529160200191610b34565b820191906000526020600020905b815481529060010190602001808311610b1757829003601f168201915b505050505091509250925092509193909250565b600160a060020a038116600090815260026020819052604082205460ff1690811115610b7057fe5b92915050565b6000805433600160a060020a03908116911614610b9257600080fd5b60408051606081018252838152815160208181018452600080835281840192909252928201819052600180548082018083559190925282518051919460039093027fb10e2d527612073b26eecdfd717e6a320cf44b4afac2b0732d9fcbe2b7fa0cf60192610c059284929091019061105f565b506020828101518051610c1e926001850192019061105f565b506040820151816002015550505060019050919050565b60075460ff1690565b60608060008060008060056006600460009054906101000a900460ff166003811115610c6657fe5b6008546009546007548554604080516020601f6002600019600187161561010002019095169490940493840181900481028201810190925282815260ff90931692918891830182828015610cfb5780601f10610cd057610100808354040283529160200191610cfb565b820191906000526020600020905b815481529060010190602001808311610cde57829003601f168201915b5050885460408051602060026001851615610100026000190190941693909304601f8101849004840282018401909252818152959b508a945092508401905082828015610d895780601f10610d5e57610100808354040283529160200191610d89565b820191906000526020600020905b815481529060010190602001808311610d6c57829003601f168201915b50505050509450955095509550955095509550909192939495565b600054600160a060020a031690565b600054600160a060020a031681565b6000805433600160a060020a03908116911614610dde57600080fd5b8160031015610dec57600080fd5b816003811115610df857fe5b6004805460ff19166001836003811115610e0e57fe5b0217905550600192915050565b6000805433600160a060020a03908116911614610e3757600080fd5b8151610e4a90600690602085019061105f565b50600192915050565b60005433600160a060020a03908116911614610e6e57600080fd5b600160a060020a0381161515610e8357600080fd5b60008054604051600160a060020a03808516939216917f8be0079c531659141344cd1fd0a4f28419497f9722a3daafe3b4186f6b6457e091a36000805473ffffffffffffffffffffffffffffffffffffffff1916600160a060020a0392909216919091179055565b6000805433600160a060020a03908116911614610f0757600080fd5b824211158015610f175750818311155b8015610f235750814211155b1515610f2e57600080fd5b50600891909155600955600190565b60015490565b6001546000908210156106c7576001805483908110610f5e57fe5b600091825260209091206003909102016002018054600190810190915592915050565b600160a060020a03811660009081526002602081905260408220805460ff1916600183610e0e565b828054600181600116156101000203166002900490600052602060002090601f016020900481019282601f10610fe2578054855561101e565b8280016001018555821561101e57600052602060002091601f016020900482015b8281111561101e578254825591600101919060010190611003565b5061102a9291506110cd565b5090565b81548183558181111561105a5760030281600302836000526020600020918201910161105a91906110e7565b505050565b828054600181600116156101000203166002900490600052602060002090601f016020900481019282601f106110a057805160ff191683800117855561101e565b8280016001018555821561101e579182015b8281111561101e5782518255916020019190600101906110b2565b61064991905b8082111561102a57600081556001016110d3565b61064991905b8082111561102a576000611101828261111f565b61110f60018301600061111f565b50600060028201556003016110ed565b50805460018160011615610100020316600290046000825580601f106111455750611163565b601f01602090049060005260206000209081019061116391906110cd565b505600a165627a7a723058206b5dfea05269910e196dd215ef4a67190ec9613cd34368b8c5abe4079e869bdc0029",
  "source": "pragma solidity ^0.4.21;\r\n\r\nimport \"openzeppelin-solidity/contracts/ownership/Ownable.sol\";\r\nimport \"openzeppelin-solidity/contracts/math/SafeMath.sol\";\r\n\r\nimport \"./Candidatelist.sol\";\r\nimport \"./Voterlist.sol\";\r\n\r\n/**\r\n * @title 투표\r\n */\r\n\r\ncontract Vote is Ownable, Candidatelist, Voterlist {\r\n    using SafeMath for uint;\r\n\r\n    /**\r\n     * @dev 투표의 현재 상태\r\n     *      Open : 투표가 막 열렸고, 투표 제안자의 컨펌을 기다리는 상태\r\n     *      Proceed : 투표를 진행하고 있는 상태\r\n     *      Pause : 투표 진행 도중 문제가 생겨 일시정지한 상태\r\n     *      Close : 투표가 종료된 상태\r\n     */\r\n    enum VoteState {\r\n        Open, Proceed, Pause, Close\r\n    }\r\n    VoteState internal voteState;\r\n\r\n    string private voteName;\r\n    string private voteDescription;\r\n    bool private isPrivate;\r\n    uint private startDate;\r\n    uint private endDate;\r\n    uint private numVotedVoters;\r\n\r\n    /**\r\n     * @dev 투표 생성자\r\n     * @param _voteName 투표의 이름\r\n     * @param _owner 투표 제안자의 주소\r\n     */\r\n    constructor(\r\n        string _voteName,\r\n        string _voteDescription,\r\n        address _owner,\r\n        uint _startDate,\r\n        uint _endDate,\r\n        bool _isPrivate\r\n    )\r\n    public\r\n    {\r\n        owner = _owner;\r\n        voteName = _voteName;\r\n        voteDescription = _voteDescription;\r\n        startDate = _startDate;\r\n        endDate = _endDate;\r\n        isPrivate = _isPrivate;\r\n        voteState = VoteState.Open;\r\n    }\r\n\r\n    /**\r\n     * @dev 파라미터로 들어온 계정이 이 투표의 주인인지 확인하는 메소드\r\n     * @param accountAddress 계정 주소\r\n     * @return 계정 주소와 이 투표의 주인 주소가 맞으면 true\r\n     */\r\n    function isOwner(address accountAddress) external view returns (bool) {\r\n        return accountAddress == owner;\r\n    }\r\n\r\n    /**\r\n     * @dev 투표의 주인 계정의 주소를 반환하는 메소드\r\n     * @return 투표 계정의 주소\r\n     */\r\n    function getOwner() external view returns (address) {\r\n        return owner;\r\n    }\r\n\r\n    /**\r\n     * @dev 투표를 한 사람의 수을 얻는 메소드\r\n     * @return 투표자의 수\r\n     */\r\n    function getNumVotedVoters() external view returns (uint) {\r\n        return numVotedVoters;\r\n    }\r\n\r\n    /**\r\n     * @dev 투표가 private인지 public인지를 얻는 메소드\r\n     * @return isPrivate\r\n     */\r\n    function isPrivateVote() external view returns (bool) {\r\n        return isPrivate;\r\n    }\r\n\r\n    /**\r\n     * @dev 현재 투표의 요약 정보를 얻는 메소드\r\n     * @return 현재 투표의 요약 정보를 반환\r\n     */\r\n    function getVoteSummary() external view returns (\r\n        string,\r\n        string,\r\n        uint,\r\n        uint,\r\n        uint,\r\n        bool\r\n    ) {\r\n        return (\r\n        voteName,\r\n        voteDescription,\r\n        uint(voteState),\r\n        startDate,\r\n        endDate,\r\n        isPrivate\r\n        );\r\n    }\r\n\r\n    function setVoteDescription(string _description) public onlyOwner returns (bool success) {\r\n        voteDescription = _description;\r\n        success = true;\r\n    }\r\n\r\n    /**\r\n     * @dev 투표 상태 설정\r\n     * @param _voteState 설정할 투표 상태\r\n     * @return success 성공하면 true, 실패하면 false\r\n     */\r\n    function setVoteState(uint _voteState) public onlyOwner returns (bool success) {\r\n        require(uint(VoteState.Close) >= _voteState);\r\n        voteState = VoteState(_voteState);\r\n        success = true;\r\n    }\r\n\r\n    /**\r\n     * @dev 투표 날짜 설정\r\n     * @param _startDate 변경할 시작 날짜\r\n     * @param _endDate 변경할 끝낼 날짜\r\n     * @return success 성공하면 true, 실패하면 false\r\n     */\r\n    function setDate(uint _startDate, uint _endDate) public onlyOwner returns (bool success){\r\n        require(now <= _startDate && _startDate <= _endDate && now <= _endDate);\r\n\r\n        startDate = _startDate;\r\n        endDate = _endDate;\r\n        success = true;\r\n    }\r\n\r\n    /**\r\n     * @dev Private면 화이트 리스트에 등록된 계정이 있는지 검사하고,\r\n     *      계정이 있으면 후보자의 득표 수를 1 증가시키고\r\n     *      voters에 등록한다.\r\n     * @param _candidateIndex 투표할 후보 인덱스\r\n     * @param _voterAddress 투표를 진행하는 계정의 주소\r\n     * @return 성공하면 true\r\n     */\r\n    function voting(\r\n        uint _candidateIndex,\r\n        address _voterAddress\r\n    )\r\n    onlyVoterlisted(isPrivate)\r\n    onlyOwner\r\n    public\r\n    returns (bool success)\r\n    {\r\n//        require(endDate  >= now && startDate <= now);\r\n\r\n        if (getVoterState(_voterAddress) != uint(VoterState.Voted)) {\r\n            if (voteCandidate(_candidateIndex)) {\r\n                if (setVoted(_voterAddress)) {\r\n                    numVotedVoters++;\r\n                    success = true;\r\n                }\r\n            }\r\n        }\r\n    }\r\n}\r\n",
  "sourcePath": "C:\\Users\\tkddn\\Projects\\Capstone\\prototype\\contracts\\Vote.sol",
  "compiler": {
    "name": "solc",
    "version": "0.4.23+commit.124ca40d.Emscripten.clang"
  },
  "schemaVersion": "2.0.0",
  "updatedAt": "2018-05-30T04:10:37.387Z"
}