{
  "contractName": "VoteFactory",
  "abi": [
    {
      "constant": true,
      "inputs": [],
      "name": "owner",
      "outputs": [
        {
          "name": "",
          "type": "address"
        }
      ],
      "payable": false,
      "stateMutability": "view",
      "type": "function"
    },
    {
      "constant": false,
      "inputs": [
        {
          "name": "newOwner",
          "type": "address"
        }
      ],
      "name": "transferOwnership",
      "outputs": [],
      "payable": false,
      "stateMutability": "nonpayable",
      "type": "function"
    },
    {
      "anonymous": false,
      "inputs": [
        {
          "indexed": true,
          "name": "previousOwner",
          "type": "address"
        },
        {
          "indexed": true,
          "name": "newOwner",
          "type": "address"
        }
      ],
      "name": "OwnershipTransferred",
      "type": "event"
    },
    {
      "constant": true,
      "inputs": [
        {
          "name": "doPrivateVotes",
          "type": "bool"
        }
      ],
      "name": "getDeployedVotes",
      "outputs": [
        {
          "name": "",
          "type": "address[]"
        }
      ],
      "payable": false,
      "stateMutability": "view",
      "type": "function"
    },
    {
      "constant": true,
      "inputs": [
        {
          "name": "doPrivateVotes",
          "type": "bool"
        }
      ],
      "name": "getDeployedVotesLength",
      "outputs": [
        {
          "name": "",
          "type": "uint256"
        }
      ],
      "payable": false,
      "stateMutability": "view",
      "type": "function"
    },
    {
      "constant": false,
      "inputs": [
        {
          "name": "_voteName",
          "type": "string"
        },
        {
          "name": "_voteDescription",
          "type": "string"
        },
        {
          "name": "_voteOwner",
          "type": "address"
        },
        {
          "name": "_startDate",
          "type": "uint256"
        },
        {
          "name": "_endDate",
          "type": "uint256"
        },
        {
          "name": "_isPrivate",
          "type": "bool"
        }
      ],
      "name": "makeNewVote",
      "outputs": [],
      "payable": false,
      "stateMutability": "nonpayable",
      "type": "function"
    }
  ],
  "bytecode": "0x608060405260008054600160a060020a033316600160a060020a0319909116179055611904806100306000396000f30060806040526004361061006c5763ffffffff7c010000000000000000000000000000000000000000000000000000000060003504166365a9a17281146100715780638da5cb5b146100db578063ca47088f14610119578063d9f660ed146101db578063f2fde38b14610207575b600080fd5b34801561007d57600080fd5b5061008b6004351515610235565b60408051602080825283518183015283519192839290830191858101910280838360005b838110156100c75781810151838201526020016100af565b505050509050019250505060405180910390f35b3480156100e757600080fd5b506100f06102b3565b6040805173ffffffffffffffffffffffffffffffffffffffff9092168252519081900360200190f35b34801561012557600080fd5b506040805160206004803580820135601f81018490048402850184019095528484526101d994369492936024939284019190819084018382808284375050604080516020601f89358b018035918201839004830284018301909452808352979a9998810197919650918201945092508291508401838280828437509497505050833573ffffffffffffffffffffffffffffffffffffffff1694505050602082013591604081013591506060013515156102cf565b005b3480156101e757600080fd5b506101f56004351515610508565b60408051918252519081900360200190f35b34801561021357600080fd5b506101d973ffffffffffffffffffffffffffffffffffffffff60043516610521565b606081610243576001610246565b60025b8054806020026020016040519081016040528092919081815260200182805480156102a757602002820191906000526020600020905b815473ffffffffffffffffffffffffffffffffffffffff16815260019091019060200180831161027c575b50505050509050919050565b60005473ffffffffffffffffffffffffffffffffffffffff1681565b600080543373ffffffffffffffffffffffffffffffffffffffff9081169116146102f857600080fd5b8686868686866103066105ed565b73ffffffffffffffffffffffffffffffffffffffff85166040820152606081018490526080810183905281151560a082015260c08082528751908201528651819060208083019160e08401918b019080838360005b8381101561037357818101518382015260200161035b565b50505050905090810190601f1680156103a05780820380516001836020036101000a031916815260200191505b5083810382528851815288516020918201918a019080838360005b838110156103d35781810151838201526020016103bb565b50505050905090810190601f1680156104005780820380516001836020036101000a031916815260200191505b5098505050505050505050604051809103906000f080158015610427573d6000803e3d6000fd5b509050811561049a57600280546001810182556000919091527f405787fa12a823e0f2b7631cc41b3ba8828b3321ca811111fa75cd3aa3bb5ace01805473ffffffffffffffffffffffffffffffffffffffff191673ffffffffffffffffffffffffffffffffffffffff83161790556104ff565b6001805480820182556000919091527fb10e2d527612073b26eecdfd717e6a320cf44b4afac2b0732d9fcbe2b7fa0cf601805473ffffffffffffffffffffffffffffffffffffffff191673ffffffffffffffffffffffffffffffffffffffff83161790555b50505050505050565b6000816105175760015461051b565b6002545b92915050565b6000543373ffffffffffffffffffffffffffffffffffffffff90811691161461054957600080fd5b73ffffffffffffffffffffffffffffffffffffffff8116151561056b57600080fd5b6000805460405173ffffffffffffffffffffffffffffffffffffffff808516939216917f8be0079c531659141344cd1fd0a4f28419497f9722a3daafe3b4186f6b6457e091a36000805473ffffffffffffffffffffffffffffffffffffffff191673ffffffffffffffffffffffffffffffffffffffff92909216919091179055565b6040516112db806105fe83390190560060806040523480156200001157600080fd5b50604051620012db380380620012db8339810160409081528151602080840151928401516060850151608086015160a087015160008054600160a060020a038087163391909116600160a060020a0319928316179091161790559487018051909796909601959294919390926200008f9160059190890190620000d2565b508451620000a5906006906020880190620000d2565b506008929092556009556007805491151560ff199283161790556004805490911690555062000177915050565b828054600181600116156101000203166002900490600052602060002090601f016020900481019282601f106200011557805160ff191683800117855562000145565b8280016001018555821562000145579182015b828111156200014557825182559160200191906001019062000128565b506200015392915062000157565b5090565b6200017491905b808211156200015357600081556001016200015e565b90565b61115480620001876000396000f3006080604052600436106101065763ffffffff7c010000000000000000000000000000000000000000000000000000000060003504166303b2bc2e811461010b57806309689ab21461013257806309e9d7e21461016757806321c237b21461017f57806325bd79eb146101a057806326541b56146101b55780632f54bf6e1461024c57806335b8e8201461026d57806345a5c0891461036a578063462e91ec1461038b578063616b34ef146103e457806364ad9f81146103f95780638da5cb5b1461050c578063c3077a231461053d578063d8c053bd14610555578063f2fde38b146105ae578063f3587e46146105d1578063f7522a83146105ec578063fd4a77f114610601575b600080fd5b34801561011757600080fd5b50610120610619565b60408051918252519081900360200190f35b34801561013e57600080fd5b50610153600160a060020a0360043516610620565b604080519115158252519081900360200190f35b34801561017357600080fd5b506101536004356106a0565b34801561018b57600080fd5b50610153600160a060020a0360043516610794565b3480156101ac57600080fd5b5061012061080f565b3480156101c157600080fd5b506040805160206004803580820135601f810184900484028501840190955284845261015394369492936024939284019190819084018382808284375050604080516020601f89358b018035918201839004830284018301909452808352979a9998810197919650918201945092508291508401838280828437509497506108159650505050505050565b34801561025857600080fd5b50610153600160a060020a03600435166108c8565b34801561027957600080fd5b506102856004356108dc565b604051808060200180602001848152602001838103835286818151815260200191508051906020019080838360005b838110156102cc5781810151838201526020016102b4565b50505050905090810190601f1680156102f95780820380516001836020036101000a031916815260200191505b50838103825285518152855160209182019187019080838360005b8381101561032c578181015183820152602001610314565b50505050905090810190601f1680156103595780820380516001836020036101000a031916815260200191505b509550505050505060405180910390f35b34801561037657600080fd5b50610120600160a060020a0360043516610a7b565b34801561039757600080fd5b506040805160206004803580820135601f8101849004840285018401909552848452610153943694929360249392840191908190840183828082843750949750610aa99650505050505050565b3480156103f057600080fd5b50610153610b68565b34801561040557600080fd5b5061040e610b71565b60405180806020018060200187815260200186815260200185815260200184151515158152602001838103835289818151815260200191508051906020019080838360005b8381101561046b578181015183820152602001610453565b50505050905090810190601f1680156104985780820380516001836020036101000a031916815260200191505b5083810382528851815288516020918201918a019080838360005b838110156104cb5781810151838201526020016104b3565b50505050905090810190601f1680156104f85780820380516001836020036101000a031916815260200191505b509850505050505050505060405180910390f35b34801561051857600080fd5b50610521610cd7565b60408051600160a060020a039092168252519081900360200190f35b34801561054957600080fd5b50610153600435610ce6565b34801561056157600080fd5b506040805160206004803580820135601f8101849004840285018401909552848452610153943694929360249392840191908190840183828082843750949750610d3f9650505050505050565b3480156105ba57600080fd5b506105cf600160a060020a0360043516610d77565b005b3480156105dd57600080fd5b50610153600435602435610e0f565b3480156105f857600080fd5b50610120610e61565b34801561060d57600080fd5b506105cf600435610e67565b600a545b90565b6000805433600160a060020a0390811691161461063c57600080fd5b6001600160a060020a03831660009081526002602081905260409091205460ff169081111561066757fe5b141561069b5750600160a060020a0381166000908152600260205260409020805460ff191690556003805460001901905560015b919050565b60008054819033600160a060020a039081169116146106be57600080fd5b60015483101561078e5750815b6001546000190181101561077557600180548282019081106106e957fe5b906000526020600020906003020160018281548110151561070657fe5b90600052602060002090600302016000820181600001908054600181600116156101000203166002900461073b929190610f6b565b5060018201816001019080546001816001161561010002031660029004610763929190610f6b565b506002918201549101556001016106cb565b6001805490610788906000198301610ff0565b50600191505b50919050565b6000805433600160a060020a039081169116146107b057600080fd5b600160a060020a038216600090815260026020819052604082205460ff16908111156107d857fe5b141561069b5750600160a060020a03166000908152600260205260409020805460ff19166001908117909155600380548201905590565b60035490565b6000805433600160a060020a0390811691161461083157600080fd5b604080516060810182528481526020808201859052600092820183905260018054808201808355919094528251805191946003027fb10e2d527612073b26eecdfd717e6a320cf44b4afac2b0732d9fcbe2b7fa0cf6019261089792849290910190611021565b5060208281015180516108b09260018501920190611021565b50604082015181600201555050506001905092915050565b600054600160a060020a0390811691161490565b600154606090819060009084106108f257600080fd5b600180548590811061090057fe5b906000526020600020906003020160000160018581548110151561092057fe5b906000526020600020906003020160010160018681548110151561094057fe5b60009182526020918290206002600390920201810154845460408051601f6000196101006001861615020190931694909404918201859004850284018501905280835290928591908301828280156109d95780601f106109ae576101008083540402835291602001916109d9565b820191906000526020600020905b8154815290600101906020018083116109bc57829003601f168201915b5050855460408051602060026001851615610100026000190190941693909304601f810184900484028201840190925281815295985087945092508401905082828015610a675780601f10610a3c57610100808354040283529160200191610a67565b820191906000526020600020905b815481529060010190602001808311610a4a57829003601f168201915b505050505091509250925092509193909250565b600160a060020a038116600090815260026020819052604082205460ff1690811115610aa357fe5b92915050565b6000805433600160a060020a03908116911614610ac557600080fd5b60408051606081018252838152815160208181018452600080835281840192909252928201819052600180548082018083559190925282518051919460039093027fb10e2d527612073b26eecdfd717e6a320cf44b4afac2b0732d9fcbe2b7fa0cf60192610b3892849290910190611021565b506020828101518051610b519260018501920190611021565b506040820151816002015550505060019050919050565b60075460ff1690565b60608060008060008060056006600460009054906101000a900460ff166003811115610b9957fe5b6008546009546007548554604080516020601f6002600019600187161561010002019095169490940493840181900481028201810190925282815260ff90931692918891830182828015610c2e5780601f10610c0357610100808354040283529160200191610c2e565b820191906000526020600020905b815481529060010190602001808311610c1157829003601f168201915b5050885460408051602060026001851615610100026000190190941693909304601f8101849004840282018401909252818152959b508a945092508401905082828015610cbc5780601f10610c9157610100808354040283529160200191610cbc565b820191906000526020600020905b815481529060010190602001808311610c9f57829003601f168201915b50505050509450955095509550955095509550909192939495565b600054600160a060020a031681565b6000805433600160a060020a03908116911614610d0257600080fd5b8160031015610d1057600080fd5b816003811115610d1c57fe5b6004805460ff19166001836003811115610d3257fe5b0217905550600192915050565b6000805433600160a060020a03908116911614610d5b57600080fd5b8151610d6e906006906020850190611021565b50600192915050565b60005433600160a060020a03908116911614610d9257600080fd5b600160a060020a0381161515610da757600080fd5b60008054604051600160a060020a03808516939216917f8be0079c531659141344cd1fd0a4f28419497f9722a3daafe3b4186f6b6457e091a36000805473ffffffffffffffffffffffffffffffffffffffff1916600160a060020a0392909216919091179055565b6000805433600160a060020a03908116911614610e2b57600080fd5b824211158015610e3b5750818311155b8015610e475750814211155b1515610e5257600080fd5b50600891909155600955600190565b60015490565b60075460ff168015610ea8576001600160a060020a03331660009081526002602081905260409091205460ff1690811115610e9e57fe5b14610ea857600080fd5b4260095410158015610ebc57504260085411155b1515610ec757600080fd5b6002610ed233610a7b565b14610efd57610ee082610f01565b15610efd57610eee33610f43565b15610efd57600a805460010190555b5050565b6001546000908210610f1257600080fd5b6001805483908110610f2057fe5b600091825260209091206002600390920201018054600190810190915592915050565b600160a060020a03811660009081526002602081905260408220805460ff1916600183610d32565b828054600181600116156101000203166002900490600052602060002090601f016020900481019282601f10610fa45780548555610fe0565b82800160010185558215610fe057600052602060002091601f016020900482015b82811115610fe0578254825591600101919060010190610fc5565b50610fec92915061108f565b5090565b81548183558181111561101c5760030281600302836000526020600020918201910161101c91906110a9565b505050565b828054600181600116156101000203166002900490600052602060002090601f016020900481019282601f1061106257805160ff1916838001178555610fe0565b82800160010185558215610fe0579182015b82811115610fe0578251825591602001919060010190611074565b61061d91905b80821115610fec5760008155600101611095565b61061d91905b80821115610fec5760006110c382826110e1565b6110d16001830160006110e1565b50600060028201556003016110af565b50805460018160011615610100020316600290046000825580601f106111075750611125565b601f016020900490600052602060002090810190611125919061108f565b505600a165627a7a723058207be90f1dc3792c5403ee83ec89c453cb4b3f77d9d1954d17a3e6ff41f208d9340029a165627a7a7230582044e949e1f1f5caf2106465381794aa114f8ec5247921cab7923e6a220a4d0b880029",
  "source": "pragma solidity ^0.4.21;\r\n\r\nimport \"openzeppelin-solidity/contracts/ownership/Ownable.sol\";\r\n\r\nimport \"./Vote.sol\";\r\n\r\n/**\r\n * @title 투표 팩토리\r\n * @dev 하나의 투표를 개설하는 컨트렉트\r\n */\r\n\r\ncontract VoteFactory is Ownable {\r\n\r\n    address[] private deployedPublicVotes;\r\n    address[] private deployedPrivateVotes;\r\n\r\n    /**\r\n     * @dev 현재 생성된 투표의 주소 목록을 불러옵니다.\r\n     * @param doPrivateVotes true면 프라이빗만 가져옵니다.\r\n     * @return 생성되어 있는 투표의 주소 목록\r\n     */\r\n    function getDeployedVotes(bool doPrivateVotes) external view returns (address[]) {\r\n        return doPrivateVotes ? deployedPrivateVotes : deployedPublicVotes;\r\n    }\r\n\r\n    /**\r\n     * @dev 현재 생성된 투표목록의 길이을 불러옵니다.\r\n     * @param doPrivateVotes true면 프라이빗만 가져옵니다.\r\n     * @return 투표목록의 길이\r\n     */\r\n    function getDeployedVotesLength(bool doPrivateVotes) external view returns (uint) {\r\n        return doPrivateVotes ? deployedPrivateVotes.length : deployedPublicVotes.length;\r\n    }\r\n\r\n    /**\r\n     * @dev Private, Public 중 하나를 선택하여 투표를 생성합니다.\r\n     *      생성한 다음 투표 목록(deployedVotes)에 저장\r\n     * @param _voteName 투표 이름\r\n     * @param _voteOwner 투표 제안자의 주소\r\n     * @param _isPrivate true  : private 투표를 생성\r\n     *                   false : public 투표를 생성\r\n     */\r\n    function makeNewVote(\r\n        string _voteName,\r\n        string _voteDescription,\r\n        address _voteOwner,\r\n        uint _startDate,\r\n        uint _endDate,\r\n        bool _isPrivate\r\n    )\r\n        public\r\n        onlyOwner\r\n    {\r\n        address newVote = new Vote(\r\n            _voteName,\r\n            _voteDescription,\r\n            _voteOwner,\r\n            _startDate,\r\n            _endDate,\r\n            _isPrivate\r\n        );\r\n        if(_isPrivate) {\r\n            deployedPrivateVotes.push(newVote);\r\n        } else {\r\n            deployedPublicVotes.push(newVote);\r\n        }\r\n    }\r\n}\r\n",
  "sourcePath": "C:\\Users\\tkddn\\Projects\\Capstone\\prototype\\contracts\\VoteFactory.sol",
  "compiler": {
    "name": "solc",
    "version": "0.4.23+commit.124ca40d.Emscripten.clang"
  },
  "schemaVersion": "2.0.0",
  "updatedAt": "2018-05-27T09:46:19.768Z"
}