{
  "contractName": "VoteFactory",
  "abi": [
    {
      "constant": true,
      "inputs": [],
      "name": "owner",
      "outputs": [
        {
          "name": "",
          "type": "address"
        }
      ],
      "payable": false,
      "stateMutability": "view",
      "type": "function"
    },
    {
      "constant": false,
      "inputs": [
        {
          "name": "newOwner",
          "type": "address"
        }
      ],
      "name": "transferOwnership",
      "outputs": [],
      "payable": false,
      "stateMutability": "nonpayable",
      "type": "function"
    },
    {
      "anonymous": false,
      "inputs": [
        {
          "indexed": true,
          "name": "previousOwner",
          "type": "address"
        },
        {
          "indexed": true,
          "name": "newOwner",
          "type": "address"
        }
      ],
      "name": "OwnershipTransferred",
      "type": "event"
    },
    {
      "constant": true,
      "inputs": [
        {
          "name": "doPrivateVotes",
          "type": "bool"
        }
      ],
      "name": "getDeployedVotes",
      "outputs": [
        {
          "name": "",
          "type": "address[]"
        }
      ],
      "payable": false,
      "stateMutability": "view",
      "type": "function"
    },
    {
      "constant": true,
      "inputs": [
        {
          "name": "doPrivateVotes",
          "type": "bool"
        }
      ],
      "name": "getDeployedVotesLength",
      "outputs": [
        {
          "name": "",
          "type": "uint256"
        }
      ],
      "payable": false,
      "stateMutability": "view",
      "type": "function"
    },
    {
      "constant": false,
      "inputs": [
        {
          "name": "_voteName",
          "type": "string"
        },
        {
          "name": "_voteDescription",
          "type": "string"
        },
        {
          "name": "_voteOwner",
          "type": "address"
        },
        {
          "name": "_startDate",
          "type": "uint256"
        },
        {
          "name": "_endDate",
          "type": "uint256"
        },
        {
          "name": "_isPrivate",
          "type": "bool"
        }
      ],
      "name": "makeNewVote",
      "outputs": [],
      "payable": false,
      "stateMutability": "nonpayable",
      "type": "function"
    }
  ],
  "bytecode": "0x608060405260008054600160a060020a033316600160a060020a031990911617905561190c806100306000396000f30060806040526004361061006c5763ffffffff7c010000000000000000000000000000000000000000000000000000000060003504166365a9a17281146100715780638da5cb5b146100db578063ca47088f14610119578063d9f660ed146101db578063f2fde38b14610207575b600080fd5b34801561007d57600080fd5b5061008b6004351515610235565b60408051602080825283518183015283519192839290830191858101910280838360005b838110156100c75781810151838201526020016100af565b505050509050019250505060405180910390f35b3480156100e757600080fd5b506100f06102b3565b6040805173ffffffffffffffffffffffffffffffffffffffff9092168252519081900360200190f35b34801561012557600080fd5b506040805160206004803580820135601f81018490048402850184019095528484526101d994369492936024939284019190819084018382808284375050604080516020601f89358b018035918201839004830284018301909452808352979a9998810197919650918201945092508291508401838280828437509497505050833573ffffffffffffffffffffffffffffffffffffffff1694505050602082013591604081013591506060013515156102cf565b005b3480156101e757600080fd5b506101f56004351515610508565b60408051918252519081900360200190f35b34801561021357600080fd5b506101d973ffffffffffffffffffffffffffffffffffffffff60043516610521565b606081610243576001610246565b60025b8054806020026020016040519081016040528092919081815260200182805480156102a757602002820191906000526020600020905b815473ffffffffffffffffffffffffffffffffffffffff16815260019091019060200180831161027c575b50505050509050919050565b60005473ffffffffffffffffffffffffffffffffffffffff1681565b600080543373ffffffffffffffffffffffffffffffffffffffff9081169116146102f857600080fd5b8686868686866103066105ed565b73ffffffffffffffffffffffffffffffffffffffff85166040820152606081018490526080810183905281151560a082015260c08082528751908201528651819060208083019160e08401918b019080838360005b8381101561037357818101518382015260200161035b565b50505050905090810190601f1680156103a05780820380516001836020036101000a031916815260200191505b5083810382528851815288516020918201918a019080838360005b838110156103d35781810151838201526020016103bb565b50505050905090810190601f1680156104005780820380516001836020036101000a031916815260200191505b5098505050505050505050604051809103906000f080158015610427573d6000803e3d6000fd5b509050811561049a57600280546001810182556000919091527f405787fa12a823e0f2b7631cc41b3ba8828b3321ca811111fa75cd3aa3bb5ace01805473ffffffffffffffffffffffffffffffffffffffff191673ffffffffffffffffffffffffffffffffffffffff83161790556104ff565b6001805480820182556000919091527fb10e2d527612073b26eecdfd717e6a320cf44b4afac2b0732d9fcbe2b7fa0cf601805473ffffffffffffffffffffffffffffffffffffffff191673ffffffffffffffffffffffffffffffffffffffff83161790555b50505050505050565b6000816105175760015461051b565b6002545b92915050565b6000543373ffffffffffffffffffffffffffffffffffffffff90811691161461054957600080fd5b73ffffffffffffffffffffffffffffffffffffffff8116151561056b57600080fd5b6000805460405173ffffffffffffffffffffffffffffffffffffffff808516939216917f8be0079c531659141344cd1fd0a4f28419497f9722a3daafe3b4186f6b6457e091a36000805473ffffffffffffffffffffffffffffffffffffffff191673ffffffffffffffffffffffffffffffffffffffff92909216919091179055565b6040516112e3806105fe83390190560060806040523480156200001157600080fd5b50604051620012e3380380620012e38339810160409081528151602080840151928401516060850151608086015160a087015160008054600160a060020a038087163391909116600160a060020a0319928316179091161790559487018051909796909601959294919390926200008f9160059190890190620000d2565b508451620000a5906006906020880190620000d2565b506008929092556009556007805491151560ff199283161790556004805490911690555062000177915050565b828054600181600116156101000203166002900490600052602060002090601f016020900481019282601f106200011557805160ff191683800117855562000145565b8280016001018555821562000145579182015b828111156200014557825182559160200191906001019062000128565b506200015392915062000157565b5090565b6200017491905b808211156200015357600081556001016200015e565b90565b61115c80620001876000396000f3006080604052600436106101115763ffffffff7c010000000000000000000000000000000000000000000000000000000060003504166303b2bc2e811461011657806309689ab21461013d57806309e9d7e21461017257806321c237b21461018a57806325bd79eb146101ab57806326541b56146101c05780632f54bf6e146102575780633017a1d81461027857806335b8e8201461029e57806345a5c0891461039b578063462e91ec146103bc578063616b34ef1461041557806364ad9f811461042a578063893d20e81461053d5780638da5cb5b1461056e578063c3077a2314610583578063d8c053bd1461059b578063f2fde38b146105f4578063f3587e4614610615578063f7522a8314610630575b600080fd5b34801561012257600080fd5b5061012b610645565b60408051918252519081900360200190f35b34801561014957600080fd5b5061015e600160a060020a036004351661064c565b604080519115158252519081900360200190f35b34801561017e57600080fd5b5061015e6004356106cc565b34801561019657600080fd5b5061015e600160a060020a03600435166107c0565b3480156101b757600080fd5b5061012b61083b565b3480156101cc57600080fd5b506040805160206004803580820135601f810184900484028501840190955284845261015e94369492936024939284019190819084018382808284375050604080516020601f89358b018035918201839004830284018301909452808352979a9998810197919650918201945092508291508401838280828437509497506108419650505050505050565b34801561026357600080fd5b5061015e600160a060020a03600435166108f4565b34801561028457600080fd5b5061029c600435600160a060020a0360243516610908565b005b3480156102aa57600080fd5b506102b660043561099f565b604051808060200180602001848152602001838103835286818151815260200191508051906020019080838360005b838110156102fd5781810151838201526020016102e5565b50505050905090810190601f16801561032a5780820380516001836020036101000a031916815260200191505b50838103825285518152855160209182019187019080838360005b8381101561035d578181015183820152602001610345565b50505050905090810190601f16801561038a5780820380516001836020036101000a031916815260200191505b509550505050505060405180910390f35b3480156103a757600080fd5b5061012b600160a060020a0360043516610b3e565b3480156103c857600080fd5b506040805160206004803580820135601f810184900484028501840190955284845261015e943694929360249392840191908190840183828082843750949750610b6c9650505050505050565b34801561042157600080fd5b5061015e610c2b565b34801561043657600080fd5b5061043f610c34565b60405180806020018060200187815260200186815260200185815260200184151515158152602001838103835289818151815260200191508051906020019080838360005b8381101561049c578181015183820152602001610484565b50505050905090810190601f1680156104c95780820380516001836020036101000a031916815260200191505b5083810382528851815288516020918201918a019080838360005b838110156104fc5781810151838201526020016104e4565b50505050905090810190601f1680156105295780820380516001836020036101000a031916815260200191505b509850505050505050505060405180910390f35b34801561054957600080fd5b50610552610d9a565b60408051600160a060020a039092168252519081900360200190f35b34801561057a57600080fd5b50610552610da9565b34801561058f57600080fd5b5061015e600435610db8565b3480156105a757600080fd5b506040805160206004803580820135601f810184900484028501840190955284845261015e943694929360249392840191908190840183828082843750949750610e119650505050505050565b34801561060057600080fd5b5061029c600160a060020a0360043516610e49565b34801561062157600080fd5b5061015e600435602435610ee1565b34801561063c57600080fd5b5061012b610f0c565b600a545b90565b6000805433600160a060020a0390811691161461066857600080fd5b6001600160a060020a03831660009081526002602081905260409091205460ff169081111561069357fe5b14156106c75750600160a060020a0381166000908152600260205260409020805460ff191690556003805460001901905560015b919050565b60008054819033600160a060020a039081169116146106ea57600080fd5b6001548310156107ba5750815b600154600019018110156107a1576001805482820190811061071557fe5b906000526020600020906003020160018281548110151561073257fe5b906000526020600020906003020160008201816000019080546001816001161561010002031660029004610767929190610f78565b506001820181600101908054600181600116156101000203166002900461078f929190610f78565b506002918201549101556001016106f7565b60018054906107b4906000198301610ffd565b50600191505b50919050565b6000805433600160a060020a039081169116146107dc57600080fd5b600160a060020a038216600090815260026020819052604082205460ff169081111561080457fe5b14156106c75750600160a060020a03166000908152600260205260409020805460ff19166001908117909155600380548201905590565b60035490565b6000805433600160a060020a0390811691161461085d57600080fd5b604080516060810182528481526020808201859052600092820183905260018054808201808355919094528251805191946003027fb10e2d527612073b26eecdfd717e6a320cf44b4afac2b0732d9fcbe2b7fa0cf601926108c392849290910190611029565b5060208281015180516108dc9260018501920190611029565b50604082015181600201555050506001905092915050565b600054600160a060020a0390811691161490565b60075460ff168015610949576001600160a060020a03331660009081526002602081905260409091205460ff169081111561093f57fe5b1461094957600080fd5b60005433600160a060020a0390811691161461096457600080fd5b600261096f83610b3e565b1461099a5761097d83610f12565b1561099a5761098b82610f50565b1561099a57600a805460010190555b505050565b600154606090819060009084106109b557600080fd5b60018054859081106109c357fe5b90600052602060002090600302016000016001858154811015156109e357fe5b9060005260206000209060030201600101600186815481101515610a0357fe5b60009182526020918290206002600390920201810154845460408051601f600019610100600186161502019093169490940491820185900485028401850190528083529092859190830182828015610a9c5780601f10610a7157610100808354040283529160200191610a9c565b820191906000526020600020905b815481529060010190602001808311610a7f57829003601f168201915b5050855460408051602060026001851615610100026000190190941693909304601f810184900484028201840190925281815295985087945092508401905082828015610b2a5780601f10610aff57610100808354040283529160200191610b2a565b820191906000526020600020905b815481529060010190602001808311610b0d57829003601f168201915b505050505091509250925092509193909250565b600160a060020a038116600090815260026020819052604082205460ff1690811115610b6657fe5b92915050565b6000805433600160a060020a03908116911614610b8857600080fd5b60408051606081018252838152815160208181018452600080835281840192909252928201819052600180548082018083559190925282518051919460039093027fb10e2d527612073b26eecdfd717e6a320cf44b4afac2b0732d9fcbe2b7fa0cf60192610bfb92849290910190611029565b506020828101518051610c149260018501920190611029565b506040820151816002015550505060019050919050565b60075460ff1690565b60608060008060008060056006600460009054906101000a900460ff166003811115610c5c57fe5b6008546009546007548554604080516020601f6002600019600187161561010002019095169490940493840181900481028201810190925282815260ff90931692918891830182828015610cf15780601f10610cc657610100808354040283529160200191610cf1565b820191906000526020600020905b815481529060010190602001808311610cd457829003601f168201915b5050885460408051602060026001851615610100026000190190941693909304601f8101849004840282018401909252818152959b508a945092508401905082828015610d7f5780601f10610d5457610100808354040283529160200191610d7f565b820191906000526020600020905b815481529060010190602001808311610d6257829003601f168201915b50505050509450955095509550955095509550909192939495565b600054600160a060020a031690565b600054600160a060020a031681565b6000805433600160a060020a03908116911614610dd457600080fd5b8160031015610de257600080fd5b816003811115610dee57fe5b6004805460ff19166001836003811115610e0457fe5b0217905550600192915050565b6000805433600160a060020a03908116911614610e2d57600080fd5b8151610e40906006906020850190611029565b50600192915050565b60005433600160a060020a03908116911614610e6457600080fd5b600160a060020a0381161515610e7957600080fd5b60008054604051600160a060020a03808516939216917f8be0079c531659141344cd1fd0a4f28419497f9722a3daafe3b4186f6b6457e091a36000805473ffffffffffffffffffffffffffffffffffffffff1916600160a060020a0392909216919091179055565b6000805433600160a060020a03908116911614610efd57600080fd5b50600891909155600955600190565b60015490565b6001546000908210156106c7576001805483908110610f2d57fe5b600091825260209091206003909102016002018054600190810190915592915050565b600160a060020a03811660009081526002602081905260408220805460ff1916600183610e04565b828054600181600116156101000203166002900490600052602060002090601f016020900481019282601f10610fb15780548555610fed565b82800160010185558215610fed57600052602060002091601f016020900482015b82811115610fed578254825591600101919060010190610fd2565b50610ff9929150611097565b5090565b81548183558181111561099a5760030281600302836000526020600020918201910161099a91906110b1565b828054600181600116156101000203166002900490600052602060002090601f016020900481019282601f1061106a57805160ff1916838001178555610fed565b82800160010185558215610fed579182015b82811115610fed57825182559160200191906001019061107c565b61064991905b80821115610ff9576000815560010161109d565b61064991905b80821115610ff95760006110cb82826110e9565b6110d96001830160006110e9565b50600060028201556003016110b7565b50805460018160011615610100020316600290046000825580601f1061110f575061112d565b601f01602090049060005260206000209081019061112d9190611097565b505600a165627a7a72305820fa9376d0f14deae249fa525e3d09e04bb088c091f353d990fed94854ed18c4310029a165627a7a723058204d8204085d51313ee7040671fd55266d8eec3c2d03b457d4b6aa6cf73d8aa5e00029",
  "source": "pragma solidity ^0.4.21;\r\n\r\nimport \"openzeppelin-solidity/contracts/ownership/Ownable.sol\";\r\n\r\nimport \"./Vote.sol\";\r\n\r\n/**\r\n * @title 투표 팩토리\r\n * @dev 하나의 투표를 개설하는 컨트렉트\r\n */\r\n\r\ncontract VoteFactory is Ownable {\r\n\r\n    address[] private deployedPublicVotes;\r\n    address[] private deployedPrivateVotes;\r\n\r\n    /**\r\n     * @dev 현재 생성된 투표의 주소 목록을 불러옵니다.\r\n     * @param doPrivateVotes true면 프라이빗만 가져옵니다.\r\n     * @return 생성되어 있는 투표의 주소 목록\r\n     */\r\n    function getDeployedVotes(bool doPrivateVotes) external view returns (address[]) {\r\n        return doPrivateVotes ? deployedPrivateVotes : deployedPublicVotes;\r\n    }\r\n\r\n    /**\r\n     * @dev 현재 생성된 투표목록의 길이을 불러옵니다.\r\n     * @param doPrivateVotes true면 프라이빗만 가져옵니다.\r\n     * @return 투표목록의 길이\r\n     */\r\n    function getDeployedVotesLength(bool doPrivateVotes) external view returns (uint) {\r\n        return doPrivateVotes ? deployedPrivateVotes.length : deployedPublicVotes.length;\r\n    }\r\n\r\n    /**\r\n     * @dev Private, Public 중 하나를 선택하여 투표를 생성합니다.\r\n     *      생성한 다음 투표 목록(deployedVotes)에 저장\r\n     * @param _voteName 투표 이름\r\n     * @param _voteOwner 투표 제안자의 주소\r\n     * @param _isPrivate true  : private 투표를 생성\r\n     *                   false : public 투표를 생성\r\n     */\r\n    function makeNewVote(\r\n        string _voteName,\r\n        string _voteDescription,\r\n        address _voteOwner,\r\n        uint _startDate,\r\n        uint _endDate,\r\n        bool _isPrivate\r\n    )\r\n        public\r\n        onlyOwner\r\n    {\r\n        address newVote = new Vote(\r\n            _voteName,\r\n            _voteDescription,\r\n            _voteOwner,\r\n            _startDate,\r\n            _endDate,\r\n            _isPrivate\r\n        );\r\n        if(_isPrivate) {\r\n            deployedPrivateVotes.push(newVote);\r\n        } else {\r\n            deployedPublicVotes.push(newVote);\r\n        }\r\n    }\r\n}\r\n",
  "sourcePath": "C:\\Users\\tkddn\\Projects\\Capstone\\prototype\\contracts\\VoteFactory.sol",
  "compiler": {
    "name": "solc",
    "version": "0.4.23+commit.124ca40d.Emscripten.clang"
  },
  "schemaVersion": "2.0.0",
  "updatedAt": "2018-06-07T04:48:11.171Z"
}