{
  "contractName": "Vote",
  "abi": [
    {
      "constant": false,
      "inputs": [
        {
          "name": "_voterAddress",
          "type": "address"
        }
      ],
      "name": "setVoterStateNoneFromVoters",
      "outputs": [
        {
          "name": "success",
          "type": "bool"
        }
      ],
      "payable": false,
      "stateMutability": "nonpayable",
      "type": "function"
    },
    {
      "constant": false,
      "inputs": [
        {
          "name": "_candidateIndex",
          "type": "uint256"
        }
      ],
      "name": "removeCandidate",
      "outputs": [
        {
          "name": "success",
          "type": "bool"
        }
      ],
      "payable": false,
      "stateMutability": "nonpayable",
      "type": "function"
    },
    {
      "constant": false,
      "inputs": [
        {
          "name": "_voterAddress",
          "type": "address"
        }
      ],
      "name": "addVoterToVoterlist",
      "outputs": [
        {
          "name": "success",
          "type": "bool"
        }
      ],
      "payable": false,
      "stateMutability": "nonpayable",
      "type": "function"
    },
    {
      "constant": true,
      "inputs": [],
      "name": "getNumVoters",
      "outputs": [
        {
          "name": "",
          "type": "uint256"
        }
      ],
      "payable": false,
      "stateMutability": "view",
      "type": "function"
    },
    {
      "constant": false,
      "inputs": [
        {
          "name": "_candidateName",
          "type": "string"
        },
        {
          "name": "_commitment",
          "type": "string"
        }
      ],
      "name": "addCandidate",
      "outputs": [
        {
          "name": "success",
          "type": "bool"
        }
      ],
      "payable": false,
      "stateMutability": "nonpayable",
      "type": "function"
    },
    {
      "constant": true,
      "inputs": [
        {
          "name": "_candidateIndex",
          "type": "uint256"
        }
      ],
      "name": "getCandidate",
      "outputs": [
        {
          "name": "",
          "type": "string"
        },
        {
          "name": "",
          "type": "string"
        },
        {
          "name": "",
          "type": "uint256"
        }
      ],
      "payable": false,
      "stateMutability": "view",
      "type": "function"
    },
    {
      "constant": true,
      "inputs": [
        {
          "name": "_voterAddress",
          "type": "address"
        }
      ],
      "name": "getVoterState",
      "outputs": [
        {
          "name": "",
          "type": "uint256"
        }
      ],
      "payable": false,
      "stateMutability": "view",
      "type": "function"
    },
    {
      "constant": false,
      "inputs": [
        {
          "name": "_candidateName",
          "type": "string"
        }
      ],
      "name": "addCandidate",
      "outputs": [
        {
          "name": "success",
          "type": "bool"
        }
      ],
      "payable": false,
      "stateMutability": "nonpayable",
      "type": "function"
    },
    {
      "constant": true,
      "inputs": [],
      "name": "owner",
      "outputs": [
        {
          "name": "",
          "type": "address"
        }
      ],
      "payable": false,
      "stateMutability": "view",
      "type": "function"
    },
    {
      "constant": false,
      "inputs": [
        {
          "name": "newOwner",
          "type": "address"
        }
      ],
      "name": "transferOwnership",
      "outputs": [],
      "payable": false,
      "stateMutability": "nonpayable",
      "type": "function"
    },
    {
      "constant": true,
      "inputs": [],
      "name": "getCandidateLength",
      "outputs": [
        {
          "name": "",
          "type": "uint256"
        }
      ],
      "payable": false,
      "stateMutability": "view",
      "type": "function"
    },
    {
      "inputs": [
        {
          "name": "_voteName",
          "type": "string"
        },
        {
          "name": "_voteDescription",
          "type": "string"
        },
        {
          "name": "_owner",
          "type": "address"
        },
        {
          "name": "_startDate",
          "type": "uint256"
        },
        {
          "name": "_endDate",
          "type": "uint256"
        },
        {
          "name": "_isPrivate",
          "type": "bool"
        }
      ],
      "payable": false,
      "stateMutability": "nonpayable",
      "type": "constructor"
    },
    {
      "anonymous": false,
      "inputs": [
        {
          "indexed": true,
          "name": "previousOwner",
          "type": "address"
        },
        {
          "indexed": true,
          "name": "newOwner",
          "type": "address"
        }
      ],
      "name": "OwnershipTransferred",
      "type": "event"
    },
    {
      "constant": true,
      "inputs": [
        {
          "name": "accountAddress",
          "type": "address"
        }
      ],
      "name": "isOwner",
      "outputs": [
        {
          "name": "",
          "type": "bool"
        }
      ],
      "payable": false,
      "stateMutability": "view",
      "type": "function"
    },
    {
      "constant": true,
      "inputs": [],
      "name": "getNumVotedVoters",
      "outputs": [
        {
          "name": "",
          "type": "uint256"
        }
      ],
      "payable": false,
      "stateMutability": "view",
      "type": "function"
    },
    {
      "constant": true,
      "inputs": [],
      "name": "isPrivateVote",
      "outputs": [
        {
          "name": "",
          "type": "bool"
        }
      ],
      "payable": false,
      "stateMutability": "view",
      "type": "function"
    },
    {
      "constant": true,
      "inputs": [],
      "name": "getVoteSummary",
      "outputs": [
        {
          "name": "",
          "type": "string"
        },
        {
          "name": "",
          "type": "string"
        },
        {
          "name": "",
          "type": "uint256"
        },
        {
          "name": "",
          "type": "uint256"
        },
        {
          "name": "",
          "type": "uint256"
        },
        {
          "name": "",
          "type": "bool"
        }
      ],
      "payable": false,
      "stateMutability": "view",
      "type": "function"
    },
    {
      "constant": false,
      "inputs": [
        {
          "name": "_description",
          "type": "string"
        }
      ],
      "name": "setVoteDescription",
      "outputs": [
        {
          "name": "success",
          "type": "bool"
        }
      ],
      "payable": false,
      "stateMutability": "nonpayable",
      "type": "function"
    },
    {
      "constant": false,
      "inputs": [
        {
          "name": "_voteState",
          "type": "uint256"
        }
      ],
      "name": "setVoteState",
      "outputs": [
        {
          "name": "success",
          "type": "bool"
        }
      ],
      "payable": false,
      "stateMutability": "nonpayable",
      "type": "function"
    },
    {
      "constant": false,
      "inputs": [
        {
          "name": "_startDate",
          "type": "uint256"
        },
        {
          "name": "_endDate",
          "type": "uint256"
        }
      ],
      "name": "setDate",
      "outputs": [
        {
          "name": "success",
          "type": "bool"
        }
      ],
      "payable": false,
      "stateMutability": "nonpayable",
      "type": "function"
    },
    {
      "constant": false,
      "inputs": [
        {
          "name": "_candidateIndex",
          "type": "uint256"
        }
      ],
      "name": "voting",
      "outputs": [],
      "payable": false,
      "stateMutability": "nonpayable",
      "type": "function"
    }
  ],
  "bytecode": "0x60806040523480156200001157600080fd5b50604051620012db380380620012db8339810160409081528151602080840151928401516060850151608086015160a087015160008054600160a060020a038087163391909116600160a060020a0319928316179091161790559487018051909796909601959294919390926200008f9160059190890190620000d2565b508451620000a5906006906020880190620000d2565b506008929092556009556007805491151560ff199283161790556004805490911690555062000177915050565b828054600181600116156101000203166002900490600052602060002090601f016020900481019282601f106200011557805160ff191683800117855562000145565b8280016001018555821562000145579182015b828111156200014557825182559160200191906001019062000128565b506200015392915062000157565b5090565b6200017491905b808211156200015357600081556001016200015e565b90565b61115480620001876000396000f3006080604052600436106101065763ffffffff7c010000000000000000000000000000000000000000000000000000000060003504166303b2bc2e811461010b57806309689ab21461013257806309e9d7e21461016757806321c237b21461017f57806325bd79eb146101a057806326541b56146101b55780632f54bf6e1461024c57806335b8e8201461026d57806345a5c0891461036a578063462e91ec1461038b578063616b34ef146103e457806364ad9f81146103f95780638da5cb5b1461050c578063c3077a231461053d578063d8c053bd14610555578063f2fde38b146105ae578063f3587e46146105d1578063f7522a83146105ec578063fd4a77f114610601575b600080fd5b34801561011757600080fd5b50610120610619565b60408051918252519081900360200190f35b34801561013e57600080fd5b50610153600160a060020a0360043516610620565b604080519115158252519081900360200190f35b34801561017357600080fd5b506101536004356106a0565b34801561018b57600080fd5b50610153600160a060020a0360043516610794565b3480156101ac57600080fd5b5061012061080f565b3480156101c157600080fd5b506040805160206004803580820135601f810184900484028501840190955284845261015394369492936024939284019190819084018382808284375050604080516020601f89358b018035918201839004830284018301909452808352979a9998810197919650918201945092508291508401838280828437509497506108159650505050505050565b34801561025857600080fd5b50610153600160a060020a03600435166108c8565b34801561027957600080fd5b506102856004356108dc565b604051808060200180602001848152602001838103835286818151815260200191508051906020019080838360005b838110156102cc5781810151838201526020016102b4565b50505050905090810190601f1680156102f95780820380516001836020036101000a031916815260200191505b50838103825285518152855160209182019187019080838360005b8381101561032c578181015183820152602001610314565b50505050905090810190601f1680156103595780820380516001836020036101000a031916815260200191505b509550505050505060405180910390f35b34801561037657600080fd5b50610120600160a060020a0360043516610a7b565b34801561039757600080fd5b506040805160206004803580820135601f8101849004840285018401909552848452610153943694929360249392840191908190840183828082843750949750610aa99650505050505050565b3480156103f057600080fd5b50610153610b68565b34801561040557600080fd5b5061040e610b71565b60405180806020018060200187815260200186815260200185815260200184151515158152602001838103835289818151815260200191508051906020019080838360005b8381101561046b578181015183820152602001610453565b50505050905090810190601f1680156104985780820380516001836020036101000a031916815260200191505b5083810382528851815288516020918201918a019080838360005b838110156104cb5781810151838201526020016104b3565b50505050905090810190601f1680156104f85780820380516001836020036101000a031916815260200191505b509850505050505050505060405180910390f35b34801561051857600080fd5b50610521610cd7565b60408051600160a060020a039092168252519081900360200190f35b34801561054957600080fd5b50610153600435610ce6565b34801561056157600080fd5b506040805160206004803580820135601f8101849004840285018401909552848452610153943694929360249392840191908190840183828082843750949750610d3f9650505050505050565b3480156105ba57600080fd5b506105cf600160a060020a0360043516610d77565b005b3480156105dd57600080fd5b50610153600435602435610e0f565b3480156105f857600080fd5b50610120610e61565b34801561060d57600080fd5b506105cf600435610e67565b600a545b90565b6000805433600160a060020a0390811691161461063c57600080fd5b6001600160a060020a03831660009081526002602081905260409091205460ff169081111561066757fe5b141561069b5750600160a060020a0381166000908152600260205260409020805460ff191690556003805460001901905560015b919050565b60008054819033600160a060020a039081169116146106be57600080fd5b60015483101561078e5750815b6001546000190181101561077557600180548282019081106106e957fe5b906000526020600020906003020160018281548110151561070657fe5b90600052602060002090600302016000820181600001908054600181600116156101000203166002900461073b929190610f6b565b5060018201816001019080546001816001161561010002031660029004610763929190610f6b565b506002918201549101556001016106cb565b6001805490610788906000198301610ff0565b50600191505b50919050565b6000805433600160a060020a039081169116146107b057600080fd5b600160a060020a038216600090815260026020819052604082205460ff16908111156107d857fe5b141561069b5750600160a060020a03166000908152600260205260409020805460ff19166001908117909155600380548201905590565b60035490565b6000805433600160a060020a0390811691161461083157600080fd5b604080516060810182528481526020808201859052600092820183905260018054808201808355919094528251805191946003027fb10e2d527612073b26eecdfd717e6a320cf44b4afac2b0732d9fcbe2b7fa0cf6019261089792849290910190611021565b5060208281015180516108b09260018501920190611021565b50604082015181600201555050506001905092915050565b600054600160a060020a0390811691161490565b600154606090819060009084106108f257600080fd5b600180548590811061090057fe5b906000526020600020906003020160000160018581548110151561092057fe5b906000526020600020906003020160010160018681548110151561094057fe5b60009182526020918290206002600390920201810154845460408051601f6000196101006001861615020190931694909404918201859004850284018501905280835290928591908301828280156109d95780601f106109ae576101008083540402835291602001916109d9565b820191906000526020600020905b8154815290600101906020018083116109bc57829003601f168201915b5050855460408051602060026001851615610100026000190190941693909304601f810184900484028201840190925281815295985087945092508401905082828015610a675780601f10610a3c57610100808354040283529160200191610a67565b820191906000526020600020905b815481529060010190602001808311610a4a57829003601f168201915b505050505091509250925092509193909250565b600160a060020a038116600090815260026020819052604082205460ff1690811115610aa357fe5b92915050565b6000805433600160a060020a03908116911614610ac557600080fd5b60408051606081018252838152815160208181018452600080835281840192909252928201819052600180548082018083559190925282518051919460039093027fb10e2d527612073b26eecdfd717e6a320cf44b4afac2b0732d9fcbe2b7fa0cf60192610b3892849290910190611021565b506020828101518051610b519260018501920190611021565b506040820151816002015550505060019050919050565b60075460ff1690565b60608060008060008060056006600460009054906101000a900460ff166003811115610b9957fe5b6008546009546007548554604080516020601f6002600019600187161561010002019095169490940493840181900481028201810190925282815260ff90931692918891830182828015610c2e5780601f10610c0357610100808354040283529160200191610c2e565b820191906000526020600020905b815481529060010190602001808311610c1157829003601f168201915b5050885460408051602060026001851615610100026000190190941693909304601f8101849004840282018401909252818152959b508a945092508401905082828015610cbc5780601f10610c9157610100808354040283529160200191610cbc565b820191906000526020600020905b815481529060010190602001808311610c9f57829003601f168201915b50505050509450955095509550955095509550909192939495565b600054600160a060020a031681565b6000805433600160a060020a03908116911614610d0257600080fd5b8160031015610d1057600080fd5b816003811115610d1c57fe5b6004805460ff19166001836003811115610d3257fe5b0217905550600192915050565b6000805433600160a060020a03908116911614610d5b57600080fd5b8151610d6e906006906020850190611021565b50600192915050565b60005433600160a060020a03908116911614610d9257600080fd5b600160a060020a0381161515610da757600080fd5b60008054604051600160a060020a03808516939216917f8be0079c531659141344cd1fd0a4f28419497f9722a3daafe3b4186f6b6457e091a36000805473ffffffffffffffffffffffffffffffffffffffff1916600160a060020a0392909216919091179055565b6000805433600160a060020a03908116911614610e2b57600080fd5b824211158015610e3b5750818311155b8015610e475750814211155b1515610e5257600080fd5b50600891909155600955600190565b60015490565b60075460ff168015610ea8576001600160a060020a03331660009081526002602081905260409091205460ff1690811115610e9e57fe5b14610ea857600080fd5b4260095410158015610ebc57504260085411155b1515610ec757600080fd5b6002610ed233610a7b565b14610efd57610ee082610f01565b15610efd57610eee33610f43565b15610efd57600a805460010190555b5050565b6001546000908210610f1257600080fd5b6001805483908110610f2057fe5b600091825260209091206002600390920201018054600190810190915592915050565b600160a060020a03811660009081526002602081905260408220805460ff1916600183610d32565b828054600181600116156101000203166002900490600052602060002090601f016020900481019282601f10610fa45780548555610fe0565b82800160010185558215610fe057600052602060002091601f016020900482015b82811115610fe0578254825591600101919060010190610fc5565b50610fec92915061108f565b5090565b81548183558181111561101c5760030281600302836000526020600020918201910161101c91906110a9565b505050565b828054600181600116156101000203166002900490600052602060002090601f016020900481019282601f1061106257805160ff1916838001178555610fe0565b82800160010185558215610fe0579182015b82811115610fe0578251825591602001919060010190611074565b61061d91905b80821115610fec5760008155600101611095565b61061d91905b80821115610fec5760006110c382826110e1565b6110d16001830160006110e1565b50600060028201556003016110af565b50805460018160011615610100020316600290046000825580601f106111075750611125565b601f016020900490600052602060002090810190611125919061108f565b505600a165627a7a723058207be90f1dc3792c5403ee83ec89c453cb4b3f77d9d1954d17a3e6ff41f208d9340029",
  "source": "pragma solidity ^0.4.21;\r\n\r\nimport \"openzeppelin-solidity/contracts/ownership/Ownable.sol\";\r\nimport \"openzeppelin-solidity/contracts/math/SafeMath.sol\";\r\n\r\nimport \"./Candidatelist.sol\";\r\nimport \"./Voterlist.sol\";\r\n\r\n/**\r\n * @title 투표\r\n */\r\n\r\ncontract Vote is Ownable, Candidatelist, Voterlist {\r\n    using SafeMath for uint;\r\n\r\n    /**\r\n     * @dev 투표의 현재 상태\r\n     *      Open : 투표가 막 열렸고, 투표 제안자의 컨펌을 기다리는 상태\r\n     *      Proceed : 투표를 진행하고 있는 상태\r\n     *      Pause : 투표 진행 도중 문제가 생겨 일시정지한 상태\r\n     *      Close : 투표가 종료된 상태\r\n     */\r\n    enum VoteState {\r\n        Open, Proceed, Pause, Close\r\n    }\r\n    VoteState internal voteState;\r\n\r\n    string private voteName;\r\n    string private voteDescription;\r\n    bool private isPrivate;\r\n    uint private startDate;\r\n    uint private endDate;\r\n    uint private numVotedVoters;\r\n\r\n    /**\r\n     * @dev 투표 생성자\r\n     * @param _voteName 투표의 이름\r\n     * @param _owner 투표 제안자의 주소\r\n     */\r\n    constructor(\r\n        string _voteName,\r\n        string _voteDescription,\r\n        address _owner,\r\n        uint _startDate,\r\n        uint _endDate,\r\n        bool _isPrivate\r\n    )\r\n    public\r\n    {\r\n        owner = _owner;\r\n        voteName = _voteName;\r\n        voteDescription = _voteDescription;\r\n        startDate = _startDate;\r\n        endDate = _endDate;\r\n        isPrivate = _isPrivate;\r\n        voteState = VoteState.Open;\r\n    }\r\n\r\n    /**\r\n     * @dev 파라미터로 들어온 계정이 이 투표의 주인인지 확인하는 메소드\r\n     * @param accountAddress 계정 주소\r\n     * @return 계정 주소와 이 투표의 주인 주소가 맞으면 true\r\n     */\r\n    function isOwner(address accountAddress) external view returns (bool) {\r\n        return accountAddress == owner;\r\n    }\r\n\r\n    /**\r\n     * @dev 투표를 한 사람의 수을 얻는 메소드\r\n     * @return 투표자의 수\r\n     */\r\n    function getNumVotedVoters() external view returns (uint) {\r\n        return numVotedVoters;\r\n    }\r\n\r\n    /**\r\n     * @dev 투표가 private인지 public인지를 얻는 메소드\r\n     * @return isPrivate\r\n     */\r\n    function isPrivateVote() external view returns (bool) {\r\n        return isPrivate;\r\n    }\r\n\r\n    /**\r\n     * @dev 현재 투표의 요약 정보를 얻는 메소드\r\n     * @return 현재 투표의 요약 정보를 반환\r\n     */\r\n    function getVoteSummary() external view returns (\r\n        string,\r\n        string,\r\n        uint,\r\n        uint,\r\n        uint,\r\n        bool\r\n    ) {\r\n        return (\r\n        voteName,\r\n        voteDescription,\r\n        uint(voteState),\r\n        startDate,\r\n        endDate,\r\n        isPrivate\r\n        );\r\n    }\r\n\r\n    function setVoteDescription(string _description) public onlyOwner returns (bool success) {\r\n        voteDescription = _description;\r\n        success = true;\r\n    }\r\n\r\n    /**\r\n     * @dev 투표 상태 설정\r\n     * @param _voteState 설정할 투표 상태\r\n     * @return success 성공하면 true, 실패하면 false\r\n     */\r\n    function setVoteState(uint _voteState) public onlyOwner returns (bool success) {\r\n        require(uint(VoteState.Close) >= _voteState);\r\n        voteState = VoteState(_voteState);\r\n        success = true;\r\n    }\r\n\r\n    /**\r\n     * @dev 투표 날짜 설정\r\n     * @param _startDate 변경할 시작 날짜\r\n     * @param _endDate 변경할 끝낼 날짜\r\n     * @return success 성공하면 true, 실패하면 false\r\n     */\r\n    function setDate(uint _startDate, uint _endDate) public onlyOwner returns (bool success){\r\n        require(now <= _startDate && _startDate <= _endDate && now <= _endDate);\r\n\r\n        startDate = _startDate;\r\n        endDate = _endDate;\r\n        success = true;\r\n    }\r\n\r\n    /**\r\n     * @dev Private면 화이트 리스트에 등록된 계정이 있는지 검사하고,\r\n     *      계정이 있으면 후보자의 득표 수를 1 증가시키고\r\n     *      voters에 등록한다.\r\n     * @param _candidateIndex 투표할 후보 인덱스\r\n     */\r\n    function voting(uint _candidateIndex) onlyVoterlisted(isPrivate) public {\r\n        require(endDate >= now && startDate <= now);\r\n\r\n        if (getVoterState(msg.sender) != uint(VoterState.Voted)) {\r\n            if (voteCandidate(_candidateIndex)) {\r\n                if (setVoted(msg.sender)) {\r\n                    numVotedVoters++;\r\n                }\r\n            }\r\n        }\r\n    }\r\n}\r\n",
  "sourcePath": "C:\\Users\\tkddn\\Projects\\Capstone\\prototype\\contracts\\Vote.sol",
  "compiler": {
    "name": "solc",
    "version": "0.4.23+commit.124ca40d.Emscripten.clang"
  },
  "schemaVersion": "2.0.0",
  "updatedAt": "2018-05-27T09:46:19.777Z"
}