{
  "contractName": "Voterlist",
  "abi": [
    {
      "constant": true,
      "inputs": [],
      "name": "owner",
      "outputs": [
        {
          "name": "",
          "type": "address"
        }
      ],
      "payable": false,
      "stateMutability": "view",
      "type": "function"
    },
    {
      "constant": false,
      "inputs": [
        {
          "name": "newOwner",
          "type": "address"
        }
      ],
      "name": "transferOwnership",
      "outputs": [],
      "payable": false,
      "stateMutability": "nonpayable",
      "type": "function"
    },
    {
      "anonymous": false,
      "inputs": [
        {
          "indexed": true,
          "name": "previousOwner",
          "type": "address"
        },
        {
          "indexed": true,
          "name": "newOwner",
          "type": "address"
        }
      ],
      "name": "OwnershipTransferred",
      "type": "event"
    },
    {
      "constant": false,
      "inputs": [
        {
          "name": "_voterAddress",
          "type": "address"
        }
      ],
      "name": "addVoterToVoterlist",
      "outputs": [
        {
          "name": "success",
          "type": "bool"
        }
      ],
      "payable": false,
      "stateMutability": "nonpayable",
      "type": "function"
    },
    {
      "constant": false,
      "inputs": [
        {
          "name": "_voterAddress",
          "type": "address"
        }
      ],
      "name": "setVoterStateNoneFromVoters",
      "outputs": [
        {
          "name": "success",
          "type": "bool"
        }
      ],
      "payable": false,
      "stateMutability": "nonpayable",
      "type": "function"
    },
    {
      "constant": true,
      "inputs": [],
      "name": "getNumVoters",
      "outputs": [
        {
          "name": "",
          "type": "uint256"
        }
      ],
      "payable": false,
      "stateMutability": "view",
      "type": "function"
    },
    {
      "constant": true,
      "inputs": [
        {
          "name": "_voterAddress",
          "type": "address"
        }
      ],
      "name": "getVoterState",
      "outputs": [
        {
          "name": "",
          "type": "uint256"
        }
      ],
      "payable": false,
      "stateMutability": "view",
      "type": "function"
    }
  ],
  "bytecode": "0x608060405260008054600160a060020a033316600160a060020a031990911617905561036c806100306000396000f3006080604052600436106100775763ffffffff7c010000000000000000000000000000000000000000000000000000000060003504166309689ab2811461007c57806321c237b2146100b157806325bd79eb146100d257806345a5c089146100f95780638da5cb5b1461011a578063f2fde38b1461014b575b600080fd5b34801561008857600080fd5b5061009d600160a060020a036004351661016e565b604080519115158252519081900360200190f35b3480156100bd57600080fd5b5061009d600160a060020a03600435166101ed565b3480156100de57600080fd5b506100e7610266565b60408051918252519081900360200190f35b34801561010557600080fd5b506100e7600160a060020a036004351661026c565b34801561012657600080fd5b5061012f610299565b60408051600160a060020a039092168252519081900360200190f35b34801561015757600080fd5b5061016c600160a060020a03600435166102a8565b005b6000805433600160a060020a0390811691161461018a57600080fd5b6001600160a060020a03831660009081526001602052604090205460ff1660028111156101b357fe5b14156101e85750600160a060020a0381166000908152600160208190526040909120805460ff19169055600280546000190190555b919050565b6000805433600160a060020a0390811691161461020957600080fd5b600160a060020a03821660009081526001602052604081205460ff16600281111561023057fe5b14156101e85750600160a060020a03166000908152600160208190526040909120805460ff191682179055600280548201905590565b60025490565b600160a060020a03811660009081526001602052604081205460ff16600281111561029357fe5b92915050565b600054600160a060020a031681565b60005433600160a060020a039081169116146102c357600080fd5b600160a060020a03811615156102d857600080fd5b60008054604051600160a060020a03808516939216917f8be0079c531659141344cd1fd0a4f28419497f9722a3daafe3b4186f6b6457e091a36000805473ffffffffffffffffffffffffffffffffffffffff1916600160a060020a03929092169190911790555600a165627a7a723058208cf78aa4ca1b066034bc799cf52092d91ee4b9fe59fbf146b60688d80a191aad0029",
  "source": "pragma solidity ^0.4.21;\r\n\r\nimport \"openzeppelin-solidity/contracts/ownership/Ownable.sol\";\r\n\r\n/**\r\n * @title 투표자리스트\r\n */\r\ncontract Voterlist is Ownable {\r\n    mapping(address => VoterState) internal voters;\r\n    uint private numVoters;\r\n\r\n    /**\r\n     * @dev 투표자의 현재 상태\r\n     *      None : 투표에 참여할 수 없는 상태\r\n     *      Voteable : 투표에 참여할 수 있는 상태\r\n     *      Voted : 투표를 하고 난 상태\r\n     */\r\n    enum VoterState {\r\n        None, Voteable, Voted\r\n    }\r\n\r\n    /**\r\n     * @dev 투표자 리스트 검사 모디파이어\r\n     *      프리베이트 투표일 경우 투표자리스트에 있는 사람인지 검사\r\n     */\r\n    modifier onlyVoterlisted(bool isPrivate) {\r\n        if (isPrivate)\r\n            require(voters[msg.sender] == VoterState.Voteable);\r\n        _;\r\n    }\r\n//\r\n//    /**\r\n//     * @dev 투표자 상태 설정\r\n//     * @param _voterAddress 설정할 투표자\r\n//     * @param _voterState 설정할 투표자 상태\r\n//     * @return success 성공하면 true, 실패하면 false\r\n//     */\r\n//    function setVoterState(\r\n//        address _voterAddress,\r\n//        uint _voterState\r\n//    )\r\n//        public\r\n//        onlyOwner\r\n//        returns (bool success)\r\n//    {\r\n//        require(uint(VoterState.Voted) >= _voterState);\r\n//        voters[_voterAddress] = VoterState(_voterState);\r\n//        success = true;\r\n//    }\r\n\r\n    /**\r\n     * @dev 투표자리스트에 투표자를 추가하는 메소드\r\n     * @param _voterAddress 투표자의 주소\r\n     * @return success 명단에 넣어지면 true, 이미 있거나 실패하면 false\r\n     */\r\n    function addVoterToVoterlist(address _voterAddress) public onlyOwner returns (bool success) {\r\n        if (voters[_voterAddress] == VoterState.None) {\r\n            voters[_voterAddress] = VoterState.Voteable;\r\n            numVoters++;\r\n            success = true;\r\n        }\r\n    }\r\n\r\n    /**\r\n     * @dev 투표자리스트에 투표자를 제거하는 메소드\r\n     * @param _voterAddress 투표자의 주소\r\n     * @return success 투표자가 없으면 삭제하고 true, 있으면 false\r\n     */\r\n    function setVoterStateNoneFromVoters(address _voterAddress) public onlyOwner returns (bool success) {\r\n        if (voters[_voterAddress] == VoterState.Voteable) {\r\n            voters[_voterAddress] = VoterState.None;\r\n            numVoters--;\r\n            success = true;\r\n        }\r\n    }\r\n\r\n    /**\r\n     * @dev 프리베이트일 경우, 투표자의 총 수을 얻는 메소드\r\n     * @return 투표자의 수\r\n     */\r\n    function getNumVoters() external view returns(uint) {\r\n        return numVoters;\r\n    }\r\n\r\n    /**\r\n     * @dev 투표자의 상태를 얻는 메소드\r\n     * @return 투표자의 상태를 정수로 반환\r\n     */\r\n    function getVoterState(address _voterAddress) public view returns(uint) {\r\n        return uint(voters[_voterAddress]);\r\n    }\r\n\r\n    /**\r\n     * @dev 투표자를 투표한 상태로 설정\r\n     * @param _voterAddress 설정할 투표자\r\n     * @return success 성공하면 true, 실패하면 false\r\n     */\r\n    function setVoted(address _voterAddress) internal returns (bool success) {\r\n        voters[_voterAddress] = VoterState.Voted;\r\n        success = true;\r\n    }\r\n}\r\n",
  "sourcePath": "C:\\Users\\tkddn\\Projects\\Capstone\\prototype\\contracts\\Voterlist.sol",
  "compiler": {
    "name": "solc",
    "version": "0.4.23+commit.124ca40d.Emscripten.clang"
  },
  "schemaVersion": "2.0.0",
  "updatedAt": "2018-05-28T08:55:25.433Z"
}