{
  "contractName": "Vote",
  "abi": [
    {
      "constant": false,
      "inputs": [
        {
          "name": "_voterAddress",
          "type": "address"
        }
      ],
      "name": "setVoterStateNoneFromVoters",
      "outputs": [
        {
          "name": "success",
          "type": "bool"
        }
      ],
      "payable": false,
      "stateMutability": "nonpayable",
      "type": "function"
    },
    {
      "constant": false,
      "inputs": [
        {
          "name": "_candidateIndex",
          "type": "uint256"
        }
      ],
      "name": "removeCandidate",
      "outputs": [
        {
          "name": "success",
          "type": "bool"
        }
      ],
      "payable": false,
      "stateMutability": "nonpayable",
      "type": "function"
    },
    {
      "constant": false,
      "inputs": [
        {
          "name": "_voterAddress",
          "type": "address"
        }
      ],
      "name": "addVoterToVoterlist",
      "outputs": [
        {
          "name": "success",
          "type": "bool"
        }
      ],
      "payable": false,
      "stateMutability": "nonpayable",
      "type": "function"
    },
    {
      "constant": true,
      "inputs": [],
      "name": "getNumVoters",
      "outputs": [
        {
          "name": "",
          "type": "uint256"
        }
      ],
      "payable": false,
      "stateMutability": "view",
      "type": "function"
    },
    {
      "constant": false,
      "inputs": [
        {
          "name": "_candidateName",
          "type": "string"
        },
        {
          "name": "_commitment",
          "type": "string"
        }
      ],
      "name": "addCandidate",
      "outputs": [
        {
          "name": "success",
          "type": "bool"
        }
      ],
      "payable": false,
      "stateMutability": "nonpayable",
      "type": "function"
    },
    {
      "constant": true,
      "inputs": [
        {
          "name": "_candidateIndex",
          "type": "uint256"
        }
      ],
      "name": "getCandidate",
      "outputs": [
        {
          "name": "",
          "type": "string"
        },
        {
          "name": "",
          "type": "string"
        },
        {
          "name": "",
          "type": "uint256"
        }
      ],
      "payable": false,
      "stateMutability": "view",
      "type": "function"
    },
    {
      "constant": true,
      "inputs": [
        {
          "name": "_voterAddress",
          "type": "address"
        }
      ],
      "name": "getVoterState",
      "outputs": [
        {
          "name": "",
          "type": "uint256"
        }
      ],
      "payable": false,
      "stateMutability": "view",
      "type": "function"
    },
    {
      "constant": false,
      "inputs": [
        {
          "name": "_candidateName",
          "type": "string"
        }
      ],
      "name": "addCandidate",
      "outputs": [
        {
          "name": "success",
          "type": "bool"
        }
      ],
      "payable": false,
      "stateMutability": "nonpayable",
      "type": "function"
    },
    {
      "constant": true,
      "inputs": [],
      "name": "owner",
      "outputs": [
        {
          "name": "",
          "type": "address"
        }
      ],
      "payable": false,
      "stateMutability": "view",
      "type": "function"
    },
    {
      "constant": false,
      "inputs": [
        {
          "name": "newOwner",
          "type": "address"
        }
      ],
      "name": "transferOwnership",
      "outputs": [],
      "payable": false,
      "stateMutability": "nonpayable",
      "type": "function"
    },
    {
      "constant": true,
      "inputs": [],
      "name": "getCandidateLength",
      "outputs": [
        {
          "name": "",
          "type": "uint256"
        }
      ],
      "payable": false,
      "stateMutability": "view",
      "type": "function"
    },
    {
      "inputs": [
        {
          "name": "_voteName",
          "type": "string"
        },
        {
          "name": "_voteDescription",
          "type": "string"
        },
        {
          "name": "_owner",
          "type": "address"
        },
        {
          "name": "_startDate",
          "type": "uint256"
        },
        {
          "name": "_endDate",
          "type": "uint256"
        },
        {
          "name": "_isPrivate",
          "type": "bool"
        }
      ],
      "payable": false,
      "stateMutability": "nonpayable",
      "type": "constructor"
    },
    {
      "anonymous": false,
      "inputs": [
        {
          "indexed": true,
          "name": "previousOwner",
          "type": "address"
        },
        {
          "indexed": true,
          "name": "newOwner",
          "type": "address"
        }
      ],
      "name": "OwnershipTransferred",
      "type": "event"
    },
    {
      "constant": true,
      "inputs": [
        {
          "name": "accountAddress",
          "type": "address"
        }
      ],
      "name": "isOwner",
      "outputs": [
        {
          "name": "",
          "type": "bool"
        }
      ],
      "payable": false,
      "stateMutability": "view",
      "type": "function"
    },
    {
      "constant": true,
      "inputs": [],
      "name": "getNumVotedVoters",
      "outputs": [
        {
          "name": "",
          "type": "uint256"
        }
      ],
      "payable": false,
      "stateMutability": "view",
      "type": "function"
    },
    {
      "constant": true,
      "inputs": [],
      "name": "isPrivateVote",
      "outputs": [
        {
          "name": "",
          "type": "bool"
        }
      ],
      "payable": false,
      "stateMutability": "view",
      "type": "function"
    },
    {
      "constant": true,
      "inputs": [],
      "name": "getVoteSummary",
      "outputs": [
        {
          "name": "",
          "type": "string"
        },
        {
          "name": "",
          "type": "string"
        },
        {
          "name": "",
          "type": "uint256"
        },
        {
          "name": "",
          "type": "uint256"
        },
        {
          "name": "",
          "type": "uint256"
        },
        {
          "name": "",
          "type": "bool"
        }
      ],
      "payable": false,
      "stateMutability": "view",
      "type": "function"
    },
    {
      "constant": false,
      "inputs": [
        {
          "name": "_description",
          "type": "string"
        }
      ],
      "name": "setVoteDescription",
      "outputs": [
        {
          "name": "success",
          "type": "bool"
        }
      ],
      "payable": false,
      "stateMutability": "nonpayable",
      "type": "function"
    },
    {
      "constant": false,
      "inputs": [
        {
          "name": "_voteState",
          "type": "uint256"
        }
      ],
      "name": "setVoteState",
      "outputs": [
        {
          "name": "success",
          "type": "bool"
        }
      ],
      "payable": false,
      "stateMutability": "nonpayable",
      "type": "function"
    },
    {
      "constant": false,
      "inputs": [
        {
          "name": "_startDate",
          "type": "uint256"
        },
        {
          "name": "_endDate",
          "type": "uint256"
        }
      ],
      "name": "setDate",
      "outputs": [
        {
          "name": "success",
          "type": "bool"
        }
      ],
      "payable": false,
      "stateMutability": "nonpayable",
      "type": "function"
    },
    {
      "constant": false,
      "inputs": [
        {
          "name": "_candidateIndex",
          "type": "uint256"
        }
      ],
      "name": "voting",
      "outputs": [],
      "payable": false,
      "stateMutability": "nonpayable",
      "type": "function"
    }
  ],
  "bytecode": "0x60806040523480156200001157600080fd5b50604051620012a7380380620012a78339810160409081528151602080840151928401516060850151608086015160a08701516000805433600160a060020a03199182161716600160a060020a038616179055948701805190979690960195929491939092620000889160059190890190620000cb565b5084516200009e906006906020880190620000cb565b506008929092556009556007805491151560ff199283161790556004805490911690555062000170915050565b828054600181600116156101000203166002900490600052602060002090601f016020900481019282601f106200010e57805160ff19168380011785556200013e565b828001600101855582156200013e579182015b828111156200013e57825182559160200191906001019062000121565b506200014c92915062000150565b5090565b6200016d91905b808211156200014c576000815560010162000157565b90565b61112780620001806000396000f3006080604052600436106101065763ffffffff7c010000000000000000000000000000000000000000000000000000000060003504166303b2bc2e811461010b57806309689ab21461013257806309e9d7e21461016757806321c237b21461017f57806325bd79eb146101a057806326541b56146101b55780632f54bf6e1461024c57806335b8e8201461026d57806345a5c0891461036a578063462e91ec1461038b578063616b34ef146103e457806364ad9f81146103f95780638da5cb5b1461050c578063c3077a231461053d578063d8c053bd14610555578063f2fde38b146105ae578063f3587e46146105d1578063f7522a83146105ec578063fd4a77f114610601575b600080fd5b34801561011757600080fd5b50610120610619565b60408051918252519081900360200190f35b34801561013e57600080fd5b50610153600160a060020a0360043516610620565b604080519115158252519081900360200190f35b34801561017357600080fd5b5061015360043561069c565b34801561018b57600080fd5b50610153600160a060020a036004351661078c565b3480156101ac57600080fd5b50610120610803565b3480156101c157600080fd5b506040805160206004803580820135601f810184900484028501840190955284845261015394369492936024939284019190819084018382808284375050604080516020601f89358b018035918201839004830284018301909452808352979a9998810197919650918201945092508291508401838280828437509497506108099650505050505050565b34801561025857600080fd5b50610153600160a060020a03600435166108b8565b34801561027957600080fd5b506102856004356108cc565b604051808060200180602001848152602001838103835286818151815260200191508051906020019080838360005b838110156102cc5781810151838201526020016102b4565b50505050905090810190601f1680156102f95780820380516001836020036101000a031916815260200191505b50838103825285518152855160209182019187019080838360005b8381101561032c578181015183820152602001610314565b50505050905090810190601f1680156103595780820380516001836020036101000a031916815260200191505b509550505050505060405180910390f35b34801561037657600080fd5b50610120600160a060020a0360043516610a6b565b34801561039757600080fd5b506040805160206004803580820135601f8101849004840285018401909552848452610153943694929360249392840191908190840183828082843750949750610a999650505050505050565b3480156103f057600080fd5b50610153610b54565b34801561040557600080fd5b5061040e610b5d565b60405180806020018060200187815260200186815260200185815260200184151515158152602001838103835289818151815260200191508051906020019080838360005b8381101561046b578181015183820152602001610453565b50505050905090810190601f1680156104985780820380516001836020036101000a031916815260200191505b5083810382528851815288516020918201918a019080838360005b838110156104cb5781810151838201526020016104b3565b50505050905090810190601f1680156104f85780820380516001836020036101000a031916815260200191505b509850505050505050505060405180910390f35b34801561051857600080fd5b50610521610cc3565b60408051600160a060020a039092168252519081900360200190f35b34801561054957600080fd5b50610153600435610cd2565b34801561056157600080fd5b506040805160206004803580820135601f8101849004840285018401909552848452610153943694929360249392840191908190840183828082843750949750610d279650505050505050565b3480156105ba57600080fd5b506105cf600160a060020a0360043516610d5b565b005b3480156105dd57600080fd5b50610153600435602435610def565b3480156105f857600080fd5b50610120610e3d565b34801561060d57600080fd5b506105cf600435610e43565b600a545b90565b60008054600160a060020a0316331461063857600080fd5b6001600160a060020a03831660009081526002602081905260409091205460ff169081111561066357fe5b14156106975750600160a060020a0381166000908152600260205260409020805460ff191690556003805460001901905560015b919050565b600080548190600160a060020a031633146106b657600080fd5b6001548310156107865750815b6001546000190181101561076d57600180548282019081106106e157fe5b90600052602060002090600302016001828154811015156106fe57fe5b906000526020600020906003020160008201816000019080546001816001161561010002031660029004610733929190610f3e565b506001820181600101908054600181600116156101000203166002900461075b929190610f3e565b506002918201549101556001016106c3565b6001805490610780906000198301610fc3565b50600191505b50919050565b60008054600160a060020a031633146107a457600080fd5b600160a060020a038216600090815260026020819052604082205460ff16908111156107cc57fe5b14156106975750600160a060020a03166000908152600260205260409020805460ff19166001908117909155600380548201905590565b60035490565b60008054600160a060020a0316331461082157600080fd5b604080516060810182528481526020808201859052600092820183905260018054808201808355919094528251805191946003027fb10e2d527612073b26eecdfd717e6a320cf44b4afac2b0732d9fcbe2b7fa0cf6019261088792849290910190610ff4565b5060208281015180516108a09260018501920190610ff4565b50604082015181600201555050506001905092915050565b600054600160a060020a0390811691161490565b600154606090819060009084106108e257600080fd5b60018054859081106108f057fe5b906000526020600020906003020160000160018581548110151561091057fe5b906000526020600020906003020160010160018681548110151561093057fe5b60009182526020918290206002600390920201810154845460408051601f6000196101006001861615020190931694909404918201859004850284018501905280835290928591908301828280156109c95780601f1061099e576101008083540402835291602001916109c9565b820191906000526020600020905b8154815290600101906020018083116109ac57829003601f168201915b5050855460408051602060026001851615610100026000190190941693909304601f810184900484028201840190925281815295985087945092508401905082828015610a575780601f10610a2c57610100808354040283529160200191610a57565b820191906000526020600020905b815481529060010190602001808311610a3a57829003601f168201915b505050505091509250925092509193909250565b600160a060020a038116600090815260026020819052604082205460ff1690811115610a9357fe5b92915050565b60008054600160a060020a03163314610ab157600080fd5b60408051606081018252838152815160208181018452600080835281840192909252928201819052600180548082018083559190925282518051919460039093027fb10e2d527612073b26eecdfd717e6a320cf44b4afac2b0732d9fcbe2b7fa0cf60192610b2492849290910190610ff4565b506020828101518051610b3d9260018501920190610ff4565b506040820151816002015550505060019050919050565b60075460ff1690565b60608060008060008060056006600460009054906101000a900460ff166003811115610b8557fe5b6008546009546007548554604080516020601f6002600019600187161561010002019095169490940493840181900481028201810190925282815260ff90931692918891830182828015610c1a5780601f10610bef57610100808354040283529160200191610c1a565b820191906000526020600020905b815481529060010190602001808311610bfd57829003601f168201915b5050885460408051602060026001851615610100026000190190941693909304601f8101849004840282018401909252818152959b508a945092508401905082828015610ca85780601f10610c7d57610100808354040283529160200191610ca8565b820191906000526020600020905b815481529060010190602001808311610c8b57829003601f168201915b50505050509450955095509550955095509550909192939495565b600054600160a060020a031681565b60008054600160a060020a03163314610cea57600080fd5b8160031015610cf857600080fd5b816003811115610d0457fe5b6004805460ff19166001836003811115610d1a57fe5b0217905550600192915050565b60008054600160a060020a03163314610d3f57600080fd5b8151610d52906006906020850190610ff4565b50600192915050565b600054600160a060020a03163314610d7257600080fd5b600160a060020a0381161515610d8757600080fd5b60008054604051600160a060020a03808516939216917f8be0079c531659141344cd1fd0a4f28419497f9722a3daafe3b4186f6b6457e091a36000805473ffffffffffffffffffffffffffffffffffffffff1916600160a060020a0392909216919091179055565b60008054600160a060020a03163314610e0757600080fd5b824211158015610e175750818311155b8015610e235750814211155b1515610e2e57600080fd5b50600891909155600955600190565b60015490565b60075460ff168015610e7b5760013360009081526002602081905260409091205460ff1690811115610e7157fe5b14610e7b57600080fd5b4260095410158015610e8f57504260085411155b1515610e9a57600080fd5b6002610ea533610a6b565b14610ed057610eb382610ed4565b15610ed057610ec133610f16565b15610ed057600a805460010190555b5050565b6001546000908210610ee557600080fd5b6001805483908110610ef357fe5b600091825260209091206002600390920201018054600190810190915592915050565b600160a060020a03811660009081526002602081905260408220805460ff1916600183610d1a565b828054600181600116156101000203166002900490600052602060002090601f016020900481019282601f10610f775780548555610fb3565b82800160010185558215610fb357600052602060002091601f016020900482015b82811115610fb3578254825591600101919060010190610f98565b50610fbf929150611062565b5090565b815481835581811115610fef57600302816003028360005260206000209182019101610fef919061107c565b505050565b828054600181600116156101000203166002900490600052602060002090601f016020900481019282601f1061103557805160ff1916838001178555610fb3565b82800160010185558215610fb3579182015b82811115610fb3578251825591602001919060010190611047565b61061d91905b80821115610fbf5760008155600101611068565b61061d91905b80821115610fbf57600061109682826110b4565b6110a46001830160006110b4565b5060006002820155600301611082565b50805460018160011615610100020316600290046000825580601f106110da57506110f8565b601f0160209004906000526020600020908101906110f89190611062565b505600a165627a7a723058201aa28a77d7261bf9bd9d5bd38710808989449f1d04cd9d2a313a2182d308853a0029",
  "source": "pragma solidity ^0.4.21;\n\nimport \"openzeppelin-solidity/contracts/ownership/Ownable.sol\";\nimport \"openzeppelin-solidity/contracts/math/SafeMath.sol\";\n\nimport \"./Candidatelist.sol\";\nimport \"./Voterlist.sol\";\n\n/**\n * @title 투표\n */\n\ncontract Vote is Ownable, Candidatelist, Voterlist {\n    using SafeMath for uint;\n\n    /**\n     * @dev 투표의 현재 상태\n     *      Open : 투표가 막 열렸고, 투표 제안자의 컨펌을 기다리는 상태\n     *      Proceed : 투표를 진행하고 있는 상태\n     *      Pause : 투표 진행 도중 문제가 생겨 일시정지한 상태\n     *      Close : 투표가 종료된 상태\n     */\n    enum VoteState {\n        Open, Proceed, Pause, Close\n    }\n    VoteState internal voteState;\n\n    string private voteName;\n    string private voteDescription;\n    bool private isPrivate;\n    uint private startDate;\n    uint private endDate;\n    uint private numVotedVoters;\n\n    /**\n     * @dev 투표 생성자\n     * @param _voteName 투표의 이름\n     * @param _owner 투표 제안자의 주소\n     */\n    constructor(\n        string _voteName,\n        string _voteDescription,\n        address _owner,\n        uint _startDate,\n        uint _endDate,\n        bool _isPrivate\n    )\n    public\n    {\n        owner = _owner;\n        voteName = _voteName;\n        voteDescription = _voteDescription;\n        startDate = _startDate;\n        endDate = _endDate;\n        isPrivate = _isPrivate;\n        voteState = VoteState.Open;\n    }\n\n    /**\n     * @dev 파라미터로 들어온 계정이 이 투표의 주인인지 확인하는 메소드\n     * @param accountAddress 계정 주소\n     * @return 계정 주소와 이 투표의 주인 주소가 맞으면 true\n     */\n    function isOwner(address accountAddress) external view returns (bool) {\n        return accountAddress == owner;\n    }\n\n    /**\n     * @dev 투표를 한 사람의 수을 얻는 메소드\n     * @return 투표자의 수\n     */\n    function getNumVotedVoters() external view returns (uint) {\n        return numVotedVoters;\n    }\n\n    /**\n     * @dev 투표가 private인지 public인지를 얻는 메소드\n     * @return isPrivate\n     */\n    function isPrivateVote() external view returns (bool) {\n        return isPrivate;\n    }\n\n    /**\n     * @dev 현재 투표의 요약 정보를 얻는 메소드\n     * @return 현재 투표의 요약 정보를 반환\n     */\n    function getVoteSummary() external view returns (\n        string,\n        string,\n        uint,\n        uint,\n        uint,\n        bool\n    ) {\n        return (\n        voteName,\n        voteDescription,\n        uint(voteState),\n        startDate,\n        endDate,\n        isPrivate\n        );\n    }\n\n    function setVoteDescription(string _description) public onlyOwner returns (bool success) {\n        voteDescription = _description;\n        success = true;\n    }\n\n    /**\n     * @dev 투표 상태 설정\n     * @param _voteState 설정할 투표 상태\n     * @return success 성공하면 true, 실패하면 false\n     */\n    function setVoteState(uint _voteState) public onlyOwner returns (bool success) {\n        require(uint(VoteState.Close) >= _voteState);\n        voteState = VoteState(_voteState);\n        success = true;\n    }\n\n    /**\n     * @dev 투표 날짜 설정\n     * @param _startDate 변경할 시작 날짜\n     * @param _endDate 변경할 끝낼 날짜\n     * @return success 성공하면 true, 실패하면 false\n     */\n    function setDate(uint _startDate, uint _endDate) public onlyOwner returns (bool success){\n        require(now <= _startDate && _startDate <= _endDate && now <= _endDate);\n\n        startDate = _startDate;\n        endDate = _endDate;\n        success = true;\n    }\n\n    /**\n     * @dev Private면 화이트 리스트에 등록된 계정이 있는지 검사하고,\n     *      계정이 있으면 후보자의 득표 수를 1 증가시키고\n     *      voters에 등록한다.\n     * @param _candidateIndex 투표할 후보 인덱스\n     */\n    function voting(uint _candidateIndex) onlyVoterlisted(isPrivate) public {\n        require(endDate >= now && startDate <= now);\n\n        if (getVoterState(msg.sender) != uint(VoterState.Voted)) {\n            if (voteCandidate(_candidateIndex)) {\n                if (setVoted(msg.sender)) {\n                    numVotedVoters++;\n                }\n            }\n        }\n    }\n}\n",
  "sourcePath": "/home/ubuntu/prototype/contracts/Vote.sol",
  "compiler": {
    "name": "solc",
    "version": "0.4.24+commit.e67f0147.Emscripten.clang"
  },
  "schemaVersion": "2.0.0",
  "updatedAt": "2018-05-27T08:40:48.675Z"
}