{
  "contractName": "VoterList",
  "abi": [
    {
      "constant": true,
      "inputs": [],
      "name": "owner",
      "outputs": [
        {
          "name": "",
          "type": "address"
        }
      ],
      "payable": false,
      "stateMutability": "view",
      "type": "function"
    },
    {
      "constant": false,
      "inputs": [
        {
          "name": "newOwner",
          "type": "address"
        }
      ],
      "name": "transferOwnership",
      "outputs": [],
      "payable": false,
      "stateMutability": "nonpayable",
      "type": "function"
    },
    {
      "anonymous": false,
      "inputs": [
        {
          "indexed": true,
          "name": "previousOwner",
          "type": "address"
        },
        {
          "indexed": true,
          "name": "newOwner",
          "type": "address"
        }
      ],
      "name": "OwnershipTransferred",
      "type": "event"
    },
    {
      "constant": false,
      "inputs": [
        {
          "name": "_voterAddress",
          "type": "address"
        }
      ],
      "name": "addVoterToVoterList",
      "outputs": [
        {
          "name": "success",
          "type": "bool"
        }
      ],
      "payable": false,
      "stateMutability": "nonpayable",
      "type": "function"
    },
    {
      "constant": false,
      "inputs": [
        {
          "name": "_voterAddress",
          "type": "address"
        }
      ],
      "name": "removeVoterFromVoterList",
      "outputs": [
        {
          "name": "success",
          "type": "bool"
        }
      ],
      "payable": false,
      "stateMutability": "nonpayable",
      "type": "function"
    },
    {
      "constant": true,
      "inputs": [],
      "name": "getVoterCount",
      "outputs": [
        {
          "name": "",
          "type": "uint256"
        }
      ],
      "payable": false,
      "stateMutability": "view",
      "type": "function"
    },
    {
      "constant": true,
      "inputs": [
        {
          "name": "_voterAddress",
          "type": "address"
        }
      ],
      "name": "getVoterState",
      "outputs": [
        {
          "name": "",
          "type": "uint256"
        }
      ],
      "payable": false,
      "stateMutability": "view",
      "type": "function"
    }
  ],
  "bytecode": "0x608060405260008054600160a060020a033316600160a060020a031990911617905561036a806100306000396000f3006080604052600436106100775763ffffffff7c010000000000000000000000000000000000000000000000000000000060003504166311174a29811461007c57806345a5c089146100a35780638634ca2e146100c45780638da5cb5b146100f9578063bed88f711461012a578063f2fde38b1461014b575b600080fd5b34801561008857600080fd5b5061009161016e565b60408051918252519081900360200190f35b3480156100af57600080fd5b50610091600160a060020a0360043516610174565b3480156100d057600080fd5b506100e5600160a060020a03600435166101a4565b604080519115158252519081900360200190f35b34801561010557600080fd5b5061010e61021d565b60408051600160a060020a039092168252519081900360200190f35b34801561013657600080fd5b506100e5600160a060020a036004351661022c565b34801561015757600080fd5b5061016c600160a060020a03600435166102a6565b005b60015490565b600160a060020a038116600090815260026020819052604082205460ff169081111561019c57fe5b90505b919050565b6000805433600160a060020a039081169116146101c057600080fd5b600160a060020a038216600090815260026020819052604082205460ff16908111156101e857fe5b141561019f5750600160a060020a03166000908152600260205260409020805460ff1916600190811790915580548101815590565b600054600160a060020a031681565b6000805433600160a060020a0390811691161461024857600080fd5b6001600160a060020a03831660009081526002602081905260409091205460ff169081111561027357fe5b141561019f5750600160a060020a03166000908152600260205260409020805460ff191690556001805460001901815590565b60005433600160a060020a039081169116146102c157600080fd5b600160a060020a03811615156102d657600080fd5b60008054604051600160a060020a03808516939216917f8be0079c531659141344cd1fd0a4f28419497f9722a3daafe3b4186f6b6457e091a36000805473ffffffffffffffffffffffffffffffffffffffff1916600160a060020a03929092169190911790555600a165627a7a72305820c65bfe12e4ce93db4d6e851f42d34446a2e93251a165dd0bba536f55ded8ee9d0029",
  "source": "pragma solidity ^0.4.21;\r\n\r\nimport \"openzeppelin-solidity/contracts/ownership/Ownable.sol\";\r\n\r\n/**\r\n * @title 유권자리스트\r\n */\r\ncontract VoterList is Ownable {\r\n\r\n    uint internal voterCount;\r\n\r\n    /**\r\n     * @dev 유권자의 현재 상태\r\n     *      None : 투표를 할 수 있는 상태\r\n     *      VoteAble : 유권자가 한정된 선거에서 투표를 할 수 있는 상태\r\n     *      Voted : 투표를 완료한 상태\r\n     */\r\n    enum VoterState {\r\n        None, VoteAble, Voted\r\n    }\r\n    mapping(address => VoterState) internal voterState;\r\n\r\n    /**\r\n     * @dev 유권자 리스트 검사 모디파이어\r\n     *      유권자가 한정된 선거일 경우 유권자리스트에 있는 사람인지 검사\r\n     */\r\n    modifier onlyVoterListed(bool isFiniteElection) {\r\n        if (isFiniteElection)\r\n            require(voterState[msg.sender] == VoterState.VoteAble);\r\n        _;\r\n    }\r\n\r\n    /**\r\n     * @dev 유권자리스트에 유권자를 추가하는 메소드\r\n     * @param _voterAddress 유권자의 주소\r\n     * @return success 명단에 넣어지면 true, 이미 있거나 실패하면 false\r\n     */\r\n    function addVoterToVoterList(address _voterAddress) public onlyOwner returns (bool success) {\r\n        if (voterState[_voterAddress] == VoterState.None) {\r\n            voterState[_voterAddress] = VoterState.VoteAble;\r\n            voterCount++;\r\n            success = true;\r\n        }\r\n    }\r\n\r\n    /**\r\n     * @dev 유권자리스트에 유권자를 제거하는 메소드\r\n     * @param _voterAddress 유권자의 주소\r\n     * @return success 유권자가 없으면 삭제하고 true, 있으면 false\r\n     */\r\n    function removeVoterFromVoterList(address _voterAddress) public onlyOwner returns (bool success) {\r\n        if (voterState[_voterAddress] == VoterState.VoteAble) {\r\n            voterState[_voterAddress] = VoterState.None;\r\n            voterCount--;\r\n            success = true;\r\n        }\r\n    }\r\n\r\n    /**\r\n     * @dev 유권자 수가 한정된 선거일 경우, 유권자의 총 인원 수를 얻는 메소드\r\n     * @return 유권자의 수\r\n     */\r\n    function getVoterCount() external view returns(uint) {\r\n        return voterCount;\r\n    }\r\n\r\n    /**\r\n     * @dev 유권자의 상태를 얻는 메소드\r\n     * @return 유권자의 상태를 정수로 반환\r\n     */\r\n    function getVoterState(address _voterAddress) public view returns(uint) {\r\n        return uint(voterState[_voterAddress]);\r\n    }\r\n\r\n    /**\r\n     * @dev 유권자를 투표한 상태로 설정\r\n     * @param _voterAddress 설정할 유권자\r\n     * @return success 성공하면 true, 실패하면 false\r\n     */\r\n    function setVoted(address _voterAddress) internal returns (bool success) {\r\n        voterState[_voterAddress] = VoterState.Voted;\r\n        success = true;\r\n    }\r\n}\r\n",
  "sourcePath": "C:\\Users\\tkddn\\Projects\\Capstone\\prototype\\contracts\\Voterlist.sol",
  "compiler": {
    "name": "solc",
    "version": "0.4.23+commit.124ca40d.Emscripten.clang"
  },
  "schemaVersion": "2.0.0",
  "updatedAt": "2018-09-07T07:18:23.245Z"
}